:020000040800F2
:100000000050002021020008270200082B020008EF
:100010009D020008A1020008E9020008000000009B
:100020000000000000000000000000003103000894
:10003000350300080000000039030008E90C00083F
:100040004D0300084D0300084D0300084D03000850
:100050004D0300084D0300084D0300084D03000840
:100060004D0300084D0300084D0300084D03000830
:100070004D0300084D0300084D0300084D03000820
:100080004D0300084D0300084D0300084D03000810
:100090004D0300084D0300084D0300084D03000800
:1000A0004D0300084D0300084D0300084D030008F0
:1000B000AD0800088D090008650A00084D03000816
:1000C0004D0300084D0300084D030008190C0008FB
:1000D0004D0300084D0300084D0300084D030008C0
:1000E0004D0300084D0300084D0300080000000008
:1000F0000000000000000000000000000000000000
:1001000000000000000000005FF808F100B583B0B7
:1001100000F0AAF9304B314A1360314A1360314B79
:10012000314A32498B4204D21168196004330432D7
:10013000F7E72A4B1A682E4B9A4200D0FEE7284B6D
:100140001A682C4B9A42F9D1234B2B4A13602B4A45
:1001500013602B4B02E000221A600433294A9342B9
:10016000F9D3254B1B6813B9244B1B6803B1FEE779
:1001700000F086F9694601A800F022F9224C234BD1
:10018000E41AA4100025AC4214DC214C214BE41AE3
:10019000A4100025AC4213DC0099019800F0C2FEC7
:1001A00005461D4C1D4BE41AA410002C0EDC2846FD
:1001B00000F0E2F8154B53F8253098470135E2E797
:1001C000144B53F8253098470135E3E7013C134BB6
:1001D00053F824309847E8E7BABADECA0000002096
:1001E000AC00002000000020C86D0008B000002016
:1001F0007856341232547698B000002098010020CE
:10020000B00000209C01002078030008780300085B
:1002100078030008780300087803000878030008D2
:1002200008B5FFF773FF00BEFEE71EF0040F0CBF1A
:10023000EFF30880EFF309807146414A10472DE93A
:10024000F04182B004468846124B5E6B9F6B9D6AFC
:100250001B6B13F0020F03D00E4BDB6A002B0CDB81
:100260000D4800F0B5F8CDF800803B4632462946EF
:10027000204600F009F900BEFEE74BF6AB6100F046
:100280007DF90028ECD0034B4FF00042DA6202B057
:10029000BDE8F08100ED00E00819000800BEFEE7AF
:1002A0001EF0040F0CBFEFF30880EFF309807146D6
:1002B000244A10472DE9F04182B004468846084B95
:1002C0005E6B9F6B9D6A074800F082F8CDF8008056
:1002D0003B4632462946204600F0D6F800BEFEE7EF
:1002E00000ED00E0181900081EF0040F0CBFEFF33A
:1002F0000880EFF309807146134A10472DE9F04159
:1003000082B004468846084B5E6B9F6B9D6A074827
:1003100000F05EF8CDF800803B4632462946204684
:1003200000F0B2F800BEFEE700ED00E0241900087E
:1003300000BEFEE700BEFEE700BEFEE7704700001D
:100340003F020008B5020008FD02000800BEFEE7FB
:10035000C86D000800000020B0000020C86D000833
:100360000000000000000000B00000209C01002000
:08037000000000000000000085
:10037800FEE7000008B503460C4A12685AB10B4A5A
:100388001068033323F003030344094A934206D851
:10039800064A136008BD054A06491160EFE700F0F8
:1003A800F1FD0C2303604FF0FF30F3E7B4000020A9
:1003B800004C00209C01002001230360014B0B60CE
:1003C800704700BF040000200FB400B583B004AB31
:1003D80053F8042B01938021064800F005FE0028FD
:1003E80003DD0146034800F037F803B05DF804EB7D
:1003F80004B07047BC0000202DE9F04385B00446E6
:100408000F4643560BB10E461EE0042528462146EA
:10041800ABBE0446384605B0BDE8F08314F9011BAD
:1004280004AA1A4402F8101C0133AB42F6D304AAFA
:100438001344002203F8102C4FF00408E946404604
:100448004946ABBE8046761B002EE3D03546102EBB
:1004580028BF10250023E8E708B5FFF7CDFF08BD42
:1004680008B500F0FDF8024A024B9A6008BD00BFCB
:100478000000000800ED00E008B500F019F908BD1B
:10048800F8B504460D4617461E462748FFF79CFF59
:1004980021682648FFF798FF61682548FFF794FF11
:1004A800A1682448FFF790FFE1682348FFF78CFF15
:1004B80021692248FFF788FF61692148FFF784FF17
:1004C800A1692048FFF780FFE1691F48FFF77CFF1B
:1004D8001E48FFF779FF29461D48FFF775FF1D4C99
:1004E800E16A1D48FFF770FF216B1C48FFF76CFF9E
:1004F800E16B1B48FFF768FF15F0800F0AD115F470
:10050800004F0CD11748FFF75FFF06991648FFF711
:100518005BFFF8BD39461548FFF756FFEFE7314650
:100528001348FFF751FFEDE7EC170008FC17000828
:100538000C1800081C1800082C1800083C180008A3
:100548004C1800085C1800086C1800087C18000893
:100558008818000800ED00E098180008A81800089E
:10056800B8180008E8180008F0180008C8180008AB
:10057800D818000883691A888A4201D00020704779
:100588000268033A012A03D80233836101207047C5
:100598000020704782B00023019300932C4A13680F
:1005A80043F4803313602A4B1B6803F40033009331
:1005B800019B01330193009B1BB9019BB3F5A06F0D
:1005C800F1D1234B1B6813F4003F06D0012300939D
:1005D800009B012B04D002B0704700230093F7E77B
:1005E8001C4B1A6842F010021A601A6822F00302C3
:1005F8001A601A6842F002021A60A3F580535A681A
:100608005A605A685A605A6842F480625A605A6856
:1006180022F47C125A605A6842F4E8125A601A6846
:1006280042F080721A600A4B1B6813F0007FFAD000
:10063800074B5A6822F003025A605A6842F00202D5
:100648005A60034B5B6803F00C03082BF9D1C2E72F
:10065800001002400020024008B5FFF79BFF08BDCC
:1006680008B5104B1A6842F001021A6059680E4A20
:100678000A405A601A6822F0847222F480321A60A2
:100688001A6822F480221A605A6822F4FE025A601C
:100698004FF41F029A60FFF7DFFF044B4FF0006230
:1006A8009A6008BD001002400000FFF800ED00E06D
:1006B8001F4B5B6803F00C03042B15D0082B17D0D5
:1006C8001BB11C4B1C4A1A6002E01A4B1A4A1A60EA
:1006D800174B5B68C3F30313184AD35CDAB21549A6
:1006E8000B68D3400B607047124B134A1A60EFE750
:1006F8000F4A53685268C3F38343023312F4803FAE
:100708000AD00B4A526812F4003F0BD00C4A02FB85
:1007180003F3084A1360DBE7094A02FB03F3054ABF
:100728001360D5E7044A02FB03F3024A1360CFE7DC
:10073800001002401C00002000127A000C0000206B
:1007480000093D0010B4012824D018B1022841D076
:1007580010BC7047072910D90F29F9D8A1F108044E
:10076800E4B2A4000F23A3402A48016821EA030346
:1007780002FA04F119430160EAE789000F2303FA3A
:1007880001F0254C236823EA000302FA01F119431A
:100798002160DDE7072910D90F29D9D8A1F1080070
:1007A800C0B280000F2383401C4C216821EA030358
:1007B80002FA00F119432160CAE789000F2303FAFE
:1007C80001F0174C236823EA000302FA01F11943E8
:1007D8002160BDE7072910D90F29B9D8A1F108036D
:1007E800DBB29B000F2098400E4C216821EA0000E4
:1007F80002FA03F101432160AAE789000F2303FAF3
:1008080001F0094C236823EA000302FA01F11943B5
:1008180021609DE70408014000080140040C0140E4
:10082800000C01400410014000100140012809D0CB
:1008380010B102280CD07047012303FA01F1074BCD
:1008480019607047012303FA01F1054B19607047DD
:10085800012303FA01F1034B1960704710080140A6
:10086800100C014010100140012809D010B10228D5
:100878000CD07047012303FA01F1074B1960704748
:10088800012303FA01F1054B19607047012303FAAC
:1008980001F1034B1960704714080140140C014022
:1008A8001410014008B5314B1B7833B1304B1A682E
:1008B800304B1A602D4B00221A702E4B1B68012BEF
:1008C80011D92C4A1368013B13604FF080431A6911
:1008D80022F001021A614FF6FF72DA625A6942F099
:1008E80001025A6108BD234B1B68012B26D0224BFD
:1008F8001B784BB94FF08043DA6822F00102DA60C6
:100908001A6822F001021A601C4B1B6898474FF0C6
:100918008042136923F001031361154B1B68FBB177
:1009280013464FF6FF72DA624FF08042536943F084
:10093800010353610D4B01221A70D3E70D4A136866
:10094800013B13604FF080431A6922F001021A61DB
:100958000B4A1268DA625A6942F001025A61C1E729
:10096800074B1A684FF08043DA62DDE72000002069
:10097800440100203C0100206401002060010020A7
:100988004001002008B52E4B1B7833B12D4B1A6857
:100998002D4B1A602A4B00221A702B4B1B68012B17
:1009A80010D9294A1368013B1360284B1A6922F0B1
:1009B80001021A614FF6FF72DA625A6942F00102C7
:1009C8005A6108BD204B1B68012B23D0204B1B7894
:1009D80043B91E4BDA6822F00102DA601A6822F085
:1009E80001021A601B4B1B689847184A136923F0C9
:1009F80001031361134B1B68EBB113464FF6FF72EB
:100A0800DA62124A536943F0010353610C4B012225
:100A18001A70D6E70C4A1368013B13600B4B1A692E
:100A280022F001021A610C4A1268DA625A6942F02D
:100A380001025A61C5E7084B1A68044BDA62E0E71D
:100A4800210000205001002048010020000400403F
:100A58006C010020680100204C01002008B52E4BD5
:100A68001B7833B12D4B1A682D4B1A602A4B002284
:100A78001A702B4B1B68012B10D9294A1368013BAC
:100A88001360284B1A6922F001021A614FF6FF72AF
:100A9800DA625A6942F001025A6108BD204B1B68AC
:100AA800012B23D0204B1B7843B91E4BDA6822F068
:100AB8000102DA601A6822F001021A601B4B1B68F7
:100AC8009847184A136923F001031361134B1B68F5
:100AD800EBB113464FF6FF72DA62124A536943F0DC
:100AE800010353610C4B01221A70D6E70C4A1368B4
:100AF800013B13600B4B1A6922F001021A610C4A80
:100B08001268DA625A6942F001025A61C5E7084B75
:100B18001A68044BDA62E0E7220000205C0100203A
:100B280054010020000800407401002070010020DA
:100B380058010020034B4FF480321A60043301221D
:100B48001A607047001002401F291CD801280BD0DA
:100B580010B1022810D07047012303FA01F10A4AA4
:100B680013680B4313607047012303FA01F1074A26
:100B780013680B4313607047012303FA01F1044A19
:100B880013680B4313607047141002401C10024096
:100B980018100240114B1A6842F400721A601A6861
:100BA80042F480721A601A6822F080021A601A6889
:100BB80042F004021A601A6842F002021A601A68C7
:100BC80042F001021A601A6822F038021A601A68A4
:100BD8001A601A6842F040021A60704700300140FB
:100BE80038B505460C4600210846FFF73DFE074B81
:100BF800DD60064B9B6813F0800FFAD1034BDB686E
:100C0800237000210846FFF711FE38BD003001406F
:100C180008B5054BD868054B1B68C0B2984700213A
:100C28000846FFF703FE08BD00300140940100208C
:100C3800064B1A6822F001021A601A6822F00202B2
:100C48001A601A6822F004021A60704710E000E087
:100C5800164B9B688BB1154B9968154A11601A6839
:100C680022F001021A6000225A609A600F4B586005
:100C78001A6842F001021A6004E00D4B00221A6063
:100C8800F4E700BF094B1B6813F4803FF9D0084B09
:100C98001B6813B1054A53607047044B1A6822F069
:100CA80001021A6000225A609A60704710E000E062
:100CB80078010020074B1960074B58601A6842F00A
:100CC80002021A60054A012111701A680A431A6063
:100CD800704700BF8001002010E000E07C01002088
:100CE80008B50A4B1B785BB9094B1A6822F0020257
:100CF8001A601A6822F001021A6000225A609A608B
:100D0800044B1B689847024B1B6808BD7C010020F8
:100D180010E000E08001002010B582B004460221F6
:100D28000020FFF783FD0DF107012046FFF758FF6C
:100D380002B010BD10B582B0044602210020FFF7B2
:100D480093FD0DF107012046FFF74AFF02B010BDE1
:100D580008B501210020FFF769FD6420FFF778FF3F
:100D680001210020FFF780FD0120FFF771FF01211D
:100D78000020FFF75BFD6420FFF76AFF01210020D8
:100D8800FFF772FD6420FFF763FF01210020FFF7E2
:100D98004DFD0948FFF75CFF1120FFF7CBFF07481F
:100DA800FFF756FF3A20FFF7C5FF0520FFF7B4FF0E
:100DB8002920FFF7BFFF08BDC0D40100F049020099
:100DC80038B505462A20FFF7B5FF0020FFF7A4FF36
:100DD8003C20FFF7A1FF0020FFF79EFF5A20FFF7F6
:100DE8009BFF2B20FFF7A6FF0020FFF795FF502061
:100DF800FFF792FF0020FFF78FFF7820FFF78CFFA7
:100E08002C20FFF797FF00240AE035F81400000AA9
:100E1800FFF782FF15F81400FFF77EFF0134A4B234
:100E2800B4F5966FF1D338BD10B52A20FFF782FFCD
:100E38000020FFF771FF0020FFF76EFF0020FFF78B
:100E48006BFF7F20FFF768FF2B20FFF773FF002061
:100E5800FFF762FF0020FFF75FFF0020FFF75CFF4E
:100E68009F20FFF759FF2C20FFF764FF002407E0BD
:100E78000020FFF751FF0020FFF74EFF0134A4B216
:100E8800B4F5A04FF4D310BD10B52A20FFF752FFD8
:100E98000020FFF741FF3C20FFF73EFF0020FFF74F
:100EA8003BFF5A20FFF738FF2B20FFF743FF0020B6
:100EB800FFF732FF5020FFF72FFF0020FFF72CFF2E
:100EC8007820FFF729FF2C20FFF734FF002407E0E4
:100ED8000020FFF721FF0020FFF71EFF0134A4B216
:100EE800B4F5966FF4D310BD08B50A4B1B780A2BDE
:100EF8000BD0FFF7C9FF074A1378591C1170064A2F
:100F080052F82300FFF75CFF08BD024B00221A705D
:100F1800EFE700BF840100202400002008B5FFF798
:100F280009FE02210846FFF70FFE0C210220FFF7F9
:100F38000BFE00210220FFF707FE022201210020FC
:100F4800FFF700FC022211460020FFF7FBFB0B22F3
:100F580007210020FFF7F6FB0B2205210020FFF7F1
:100F6800F1FBFFF765FEFFF715FEFFF7F1FEFFF750
:100F78005BFF02490248FFF79DFEFEE7F10E0008FD
:100F880040420F00014B1868704700BF480000201E
:100F980030B5141E05469BB0184605DA8B234FF072
:100FA800FF302B601BB030BD4FF40273ADF80C302E
:100FB8000CBF234604F1FF33029305934FF6FF73EA
:100FC80000910491ADF80E3002461E9B69462846F2
:100FD80000F072F8431CBCBF8B232B60002CE1D0BF
:100FE8000022009B1A70DDE707B5009313460A46F6
:100FF800014603480068FFF7CBFF03B05DF804FB28
:10100800480000202DE9F0478E6882469E420C4633
:101018009046994637D88A8912F4906F31D00223C6
:10102800256809696F1A656905EB450595FBF3F5B0
:1010380009F101033B449D4238BF1D46530530D595
:10104800294600F035FB064650B90C234FF0FF3017
:10105800CAF80030A38943F04003A381BDE8F087B4
:101068003A46216900F0B4FAA38923F4906343F067
:101078008003A38126613E4426604E466561ED1BD0
:10108800A5604E4500D94E4632464146206800F0DC
:10109800AAFAA36800209B1BA36023681E4426604D
:1010A800DCE72A4600F05EFB06460028E2D121690B
:1010B800504600F0B1FAC8E72DE9F04F9DB0039310
:1010C8008B8980461D060C4616460FD50B696BB9F1
:1010D800402100F0EDFA2060206128B90C23C8F8FF
:1010E80000304FF0FF30C7E04023636100230993CD
:1010F80020238DF8293030234FF0010B8DF82A304A
:1011080037463D4615F8013B0BB1252B3ED1B7EBD1
:10111800060A0BD05346324621464046FFF772FF77
:10112800013000F0A480099B534409933B78002BBD
:1011380000F09D8000234FF0FF32CDE90523049392
:1011480007938DF853301A932F46052217F8011B81
:101158004F4800F02FFA049BD0B9D90644BF20228B
:101168008DF853201A0744BF2B228DF853202A7874
:101178002A2A15D02F4600200A25079A394611F841
:10118800013B303B092B4DD9B8B10FE02F46B8E7EA
:101198003F4A3D46801A0BFA00F018430490D3E703
:1011A800039A111D12680391002A01DB079204E0DB
:1011B800524243F00203079204933B782E2B0CD142
:1011C8007B782A2B33D1039B02371A1D1B680392A5
:1011D800002BB8BF4FF0FF3305932E4D032239780B
:1011E800284600F0E7F938B14023401B03FA00F025
:1011F800049B0137034304933978062226487E1C52
:101208008DF8281000F0D6F9002838D0234B13BBEE
:10121800039B073323F0070308330393099B4B44CD
:1012280009936DE705FB023201200F46A6E700236C
:101238000A25194601370593384610F8012B303A2C
:10124800092A03D9002BC8D00591C6E705FB01215F
:1012580001230746F0E703AB00932246104B04A98D
:101268004046AFF30080B0F1FF3F8146D6D1A38955
:101278005B063FF536AF09981DB0BDE8F08F03ABAC
:1012880000932246064B04A9404600F081F8EAE79D
:10129800946D00089A6D00089E6D0008000000001B
:1012A8000D1000082DE9F04791461F468A680B6922
:1012B80006469342B8BF1346C9F8003091F8432058
:1012C8000C46DDF8208012B10133C9F800302368DC
:1012D800990642BFD9F800300233C9F800302568B2
:1012E80015F0060507D104F1190AE368D9F80020BA
:1012F8009B1AAB4229DC94F843302268003318BFAC
:10130800012392062ED404F1430239463046C047E1
:10131800013021D02368E56803F00603042B18BFC9
:101328000025D9F800204FF0000908BFAD1AA368BE
:10133800226908BF25EAE5759342C4BF9B1AED18D8
:101348001A344D451AD1002008E001235246394687
:101358003046C047013003D14FF0FF30BDE8F08779
:101368000135C2E73020E11881F843005A1C94F88F
:1013780045102244023382F84310C4E70123224671
:1013880039463046C0470130E6D009F10109D8E7AF
:101398002DE9F04301F1430C0C46097E85B06E2916
:1013A8001746064698460C9A00F0B38022D863295F
:1013B80036D00AD8002900F0B980582900F0838077
:1013C80004F1420584F8421032E0642901D0692909
:1013D800F6D120681368050603F104012AD51B68B5
:1013E8001160002B03DA2D225B4284F843206F48FA
:1013F8000A2239E0732900F09D8008D86F2920D08F
:101408007029DDD1236843F02003236003E07529A8
:1014180017D07829D4D17823654884F8453055E029
:10142800136804F14205191D1B68116084F84230E5
:1014380001238CE01B6810F0400F116018BF1BB22D
:10144800CFE713682568181D1060280601D51B68AA
:1014580002E06806FBD51B886F2914BF0A22082200
:101468005248002184F843106568002DA560C0F239
:101478009580216821F004012160002B3DD1002DC9
:1014880040F08E806546082A0BD12368DB0708D513
:10149800236962689A42DEBF302305F8013C05F1F2
:1014A800FF35ACEB05032361CDF800803B4603AA6A
:1014B80021463046FFF7F6FE01304DD14FF0FF30A0
:1014C80005B0BDE8F083394884F8451013682168F1
:1014D8001D1D1B6815600A060BD5CA0744BF41F0DD
:1014E800200121601BB9226822F02002226010220C
:1014F800B7E74D0648BF9BB2EFE76546B3FBF2F18D
:1015080002FB1133C35C05F8013D0B460029F5D1F8
:10151800B9E713682568181D6169106028061B68FB
:1015280001D5196002E06A06FBD5198000236546DB
:101538002361B9E71368191D11601D6862680021ED
:10154800284600F037F808B1401B606063682361E3
:10155800002384F84330A7E723692A4639463046F2
:10156800C0470130AAD023689B0713D4E068039BC7
:101578009842B8BF1846A3E701234A463946304681
:10158800C04701309AD00135E368039A9B1AAB42F1
:10159800F2DCEBE7002504F11909F5E7002BACD1E3
:1015A800037804F1420584F842306CE7A56D000821
:1015B800B66D000810B5C9B202449042034601D185
:1015C800002303E01C7801308C42F6D1184610BD88
:1015D80010B5431E0A44914200D110BD11F8014BC9
:1015E80003F8014FF7E7884210B501EB020307D86B
:1015F800421E99420AD011F8014B02F8014FF8E750
:101608008342F5D98118D21AD34200D110BD13F8FC
:10161800014D01F8014DF7E738B50546002943D0DB
:1016280051F8043C0C1F002BB8BFE41800F0D0F8A8
:101638001E4A1368104633B9636014602846BDE833
:10164800384000F0C6B8A3420BD92168621893420B
:1016580001BF1A685B685218226063600460EDE796
:1016680013465A680AB1A242FAD919685818A04212
:101678000BD120680144581882421960DED11068E5
:101688005268014419605A60D8E702D90C232B60CC
:10169800D4E7206821188A4201BF116852680918E6
:1016A800216062605C60C9E738BD00BF8801002026
:1016B80070B5CD1C25F0030508350C2D38BF0C2559
:1016C800002D064601DBA94203D90C233360002014
:1016D80070BD00F07DF8214A1468214691B9204C6C
:1016E80023681BB9304600F063F82060294630466D
:1016F80000F05EF8431C24D10C233046336000F020
:1017080068F8E4E70B685B1B18D40B2B0FD90B6048
:10171800CC18CD50304600F05CF804F10B00231DC6
:1017280020F00700C31AD3D05A42E250D0E74B68E2
:101738008C4216BF636013600C46EBE70C464968A1
:10174800CCE7C41C24F00304A04205D0211A30467B
:1017580000F02EF80130CFD02560DBE788010020AB
:101768008C010020F8B5074614460E4621B9BDE89D
:10177800F8401146FFF79CBF22B9FFF74DFF2546F9
:101788002846F8BD00F026F8A0420FD22146384678
:10179800FFF78EFF05460028F2D031462246FFF7B4
:1017A80017FF31463846FFF737FFE9E73546E7E7E1
:1017B80038B50023054C054608462360FEF7DAFDD8
:1017C800431C02D1236803B12B6038BD900100206F
:1017D8007047704751F8043C181F002BBCBF0B58CA
:1017E800C0187047537461636B206672616D653A07
:1017F8000A000000205230203D2020253038580AA9
:1018080000000000205231203D2020253038580AA1
:1018180000000000205232203D2020253038580A90
:1018280000000000205233203D2020253038580A7F
:101838000000000020523132203D20253038580A5F
:1018480000000000204C52203D2020253038580A46
:1018580000000000205043203D2020253038580A41
:101868000000000020505352203D20253038580AEF
:10187800000000004653522F4641523A0A00000029
:101888002043465352203D2020253038580A000076
:101898002048465352203D2020253038580A000061
:1018A8002044465352203D2020253038580A000055
:1018B8002041465352203D2020253038580A000048
:1018C800204D4D464152203D20253038580A000011
:1018D8002042464152203D2020253038580A000039
:1018E8004D6973630A000000204C522F4558435F2E
:1018F80052455455524E3D20253038580A000000B4
:101908005B486172644661756C745D0A0000000092
:101918005B4275734661756C745D0A005B55736153
:1019280067654661756C745D0A000000FFFFFFFF84
:10193800FFFFFFFFFFFFFFFFFFF7FFFFDFF7FFFFDF
:10194800FFFFFFFFFFFFFFFFDFFFDFFFFFFFFFFFDF
:10195800DFFFDFFF9FFFDFFFFFFFFFF7FFEFFFEF77
:10196800FFF7FFFFDFFFBFFFFFFFFFFFFFFFFFFFE7
:10197800FFFFFFFFFFFFBFFFDFFFFFFFFFFFFFEFDF
:10198800FFF7FEEFFFFFFFFFDFF7FFFFFFFFDFFFC0
:10199800DFFFDFFFDFFFFFFFFFF7FFEFFFEFFFF7DF
:1019A800FFFFFFFFFFFFFFFFFFFFFFFFFFFFFFFF3F
:1019B800DFFFDFFFBFFFDFFFDFFFFFFFFEF7FEF701
:1019C800BCF7FEFFFEF7FFF7FEF7FFFFBEFFDFFFE6
:1019D800DFFFFFFFFFFFFFF7FFF7FFFFFFFFFFFF3F
:1019E800FFFFFFFFFFFFFFFFFFFFFFFFFFFFDFFF1F
:1019F8009FFF7EFF58DED1B46B8BC982CA92888262
:101A08004B8BF1AC98D61BE7FFFFDEFFFFFFFFFF14
:101A1800FFFFFFFFFFFFFFFFFFFFFFFFFFFFFFFFCE
:101A2800DFFFFFFFFFFFFFFFFFEFFFF7FFFF7DFF78
:101A380017F689A2A18003A1C3A803A90391C689A7
:101A4800B1C47CFFFEFFFFFFFFFFFFFFFFFFDFFFCB
:101A5800DFFFFFFFFFFFFFFFFFFFFFFFDFFFFFFFCE
:101A6800FFFFFFF7FFF7DEEFFFFF3BFF2BB364A994
:101A780044D124E104E124E125D145B9A6A1F2DC51
:101A88009DFFFEFFFFF7FFF7FFFFFFFFDFFFFFFFF1
:101A9800FFFFFFF7FFFFFFFFFFFFFFFFFFFFFFF75E
:101AA800FFFFFEFFBEFFF2DC449144B943D9C1E019
:101AB80041D142D102D144D165B9048917F6FEFF5C
:101AC800FFF7FFF7FFFFDFFFDFFFFFFFFFFFFFF776
:101AD800DFFFFFFFFFFFFFFFFFFFFFFFDFFFBEFF8F
:101AE8001CFF289A84A184C121C921D9C0A9A1B900
:101AF80041C123C944C166A16DB39DFFFFFFFFF734
:101B0800FFFFDFFFDFFFFFFFFFFFFFF7FFFFFFFF25
:101B1800FFFFFFFFFFFFFFFFFFFFBFFF75FD43A9AB
:101B280042C943C922C162C965D902C962D160C923
:101B380081B9A3B168AADAFEFFFFFFFFDFFFFFFF4D
:101B4800FFFFFFFFFFFFBFFFFFFFFFFFFFFFFFFFDD
:101B5800FFFFFFFFFFF7BFFF91E402A942D143D186
:101B680063C942C103A963C142C961C961C963B9F3
:101B780048BA18FEDFFFFFFFDFFFFFFFFFFFFFF799
:101B8800FFFFBFFFFFFFFFFFFFFFFFFFFFFFFFFF9D
:101B9800DFF7BEFF6DCBE1B063D143C983C1C0A8F5
:101BA800C9AAE9CA22B942D121D123C908CA96FDD6
:101BB800DFFFFFF7FFFFFFFFFFFFFFF7FFFFDFFF7D
:101BC800FFFFFFFFFFFFFFFFFFFFFFFFFFF7BEFF66
:101BD800AABA02C163D943C163B9E1A8B4D590E4F4
:101BE80002B122D902D9E3D0A7C996FDDFFFFFF7DA
:101BF800FFF7FFFFFFFFFFF7FFFFFFFFFFFFFFFFFD
:101C0800FFFFFFFFDFFFFFFFFFFF9DFF28BAE2C8CE
:101C180022D963C184B9E5C93AEF13EDE3A823D902
:101C280002D903D166C175FDDFFFFFEFFFF7DFFFC4
:101C3800FFFFFFFFFFFFFFFFFFFFFFFFFFF7FFFFB4
:101C4800FFFFFFFFFFF75CFF07BAE2D822D963C1A5
:101C580084B188D27CEF14EDE4B023D902D143D10A
:101C680085B955F5FEFFFFEFFFFFDFFFDFFFFFFF41
:101C7800FFFFFFFFFFFFFFFFFFF7FFFFFFFFFEFF75
:101C8800FEF73CFF07C2E2D822D963B963A968D23C
:101C98007CF714EDE3B023D921D162C9C5B934F575
:101CA800FEFFFFEFFFFFBFFFBFFFFFFFFFFFFFFFCD
:101CB800FFFFFFF7FFF7FFFFFFFFFEFFFFFF7CFFC0
:101CC80007C2E2D802D984C184A988D27CF7F3EC90
:101CD800A2B043E142D121C1A5B9F3ECFEFFFFEF69
:101CE800FFF7DFFFDFFFFFFFFFFFFFFFFFFFFFFF44
:101CF800FFF7FFFFFFFFFFFFFFFF9DFF69CAC1C896
:101D080063E143B964A947CAFAF691ECA2B002D9D3
:101D180082D921C184B9B2E4DEFFFFEFFFF7DFFF0C
:101D2800DFFFFFFFFFFFFFFFFFFFFFFFFFF7FFFFE3
:101D3800FFFFFFFF9DEFBEFF4CD3E2C022D184C955
:101D480064B1E2A032DDEAC202C142D961D141B92F
:101D580023A1F3ECDEFFFFF7FFF7FFFFFFFFFFFF15
:101D6800FFFFFFFFFFFFFFFFFFFFFFFFFFFFFFFF7B
:101D7800FFFFBFFF70E402B143D164C964B963B126
:101D8800849143A943D100C941C9C3B9228975EDDA
:101D9800DFFFFFF7FFF7FFFFFFFFFFFFFFFFFFFF7B
:101DA800FFFFFFFFFFFFFFFFFFFFFFFFBFF7BFFFC3
:101DB80058FEA4A143C164D164C963B924B985D1CB
:101DC80002C982D961B9A3A1C5817CFFFFFFFFF7D2
:101DD800FFFFFFFFFFFFFFFFFFFFFFFFFFFFFFFF0B
:101DE800FFFFFFFFFFFFFFFFDFFFDFFF9DFFCCD3FC
:101DF80022B103D144D183C104D903D142D141C90D
:101E0800C3C101816FBCBDFFFFF7FFF7FFFFDFFF15
:101E1800DFFFFFFFFFFFFFFFFFFFFFFFFFFFFFFFEA
:101E2800FFFFFFFFDFFFBFFFDEFF39FF26CA03D139
:101E3800E2D062C903E123D922C942C9609868AADD
:101E48009CFFFFFFFFF7FFFFFFFFFFFFDFFFDFFF45
:101E5800FFFFFFF7FFFFFFFFFFFFFFFFFFFFFFFF92
:101E6800DFFFDFF7FEFFF4F5A4B903D902D962C991
:101E780023D102C162C984D9C2B828B2DBFEFFFFF0
:101E8800FFF7FFFFFFFFFFFFFEFFFFFFFFFFFFF76B
:101E9800FFFFFFFFFFFFFFFFFFFFFFFFDFFFDFF792
:101EA800FEFF298B22A103E1E2D862C963C962C19E
:101EB80062C123C925D105A131BCFFFFFFF7FFFF90
:101EC800FFFFFEFFFEFFFFFFFFFFFFF7FFFFFFFF24
:101ED800FEF7FFFFDFFFBFFFDFFFBFFF38FE43A9AD
:101EE80042D141D183C9E1A8458928B243B922D951
:101EF80022D963B92AB35CFFDFFFDFFFFFFFFFFFD3
:101F0800FFFFFFFFFFFFFFFFFFFFFFFFFFF7FFFFE1
:101F1800DFFFDFFFBFFFBFFF13ED22A962D101C1C1
:101F280083C1C1A0CEC34CCB43B922D922E143C15E
:101F38000ABBDAFEDFFFFFFFFFF7FFF7FFFFFFFF38
:101F4800FFFFFFFFDFFFFFFFFFF7FFFFDFFFFFFFE1
:101F5800FFF7DEFF2FE402B963D162C184B944B14F
:101F680017EE2FDC23A902D102E123C90ACBDAFE3E
:101F7800DFFFFFF7FFF7FFF7FFFFFFFFDFFFDFFFE1
:101F8800DFFFFFFFFFFFFFFFDFFFFFFFFFEFDDFFCB
:101F9800CEE3C1C022D1A3C164A908C298EE0ECC79
:101FA80002A923D922E102C1A9CA78FEFEFFFFF7E0
:101FB800FFF7FFFFFFFFFFFFDFFFDFFFDFFFFFFF91
:101FC800FFFFFFFFDFFFFFF7FFEFDDFFADE3A1C876
:101FD80022D1C4C164A109CAD9F62FD403B123D927
:101FE80023D902C168C258FEFEFFFFF7FFFFFFFFBB
:101FF800FFFFFFFFFFFFDFFFDFFFFFFFFFFFFFFF29
:10200800FFFFFFF7FEE7FDFFCDEBA1C843D983B97A
:1020180064B166B9F5ED8CD303B902D143D963C174
:1020280068BA58FEFEFFFFFFDFFFDFFFFFFFFFFF7D
:10203800FFF7FFFFDFFFFFFFFFFFFFFFFFFFFFF7D8
:10204800FEE7DDFF50F4A1C042D942C163B9E4B84C
:1020580009B306BAE2C002D963D984B906A237F631
:10206800FEFFFFFFDFFFBFFFDFFFFFFFFFF7FFFF01
:10207800DFFFDFFFFFFFFFFFFFFFFFF7FFEFBDFF02
:1020880054FDE2B022D162D143C923C9229963B970
:1020980023D902E102D143A90692D9FEFEFFFFFF30
:1020A800DFFFDFFFDFFFFFFFFFFFFFFFDFFFDFFFD8
:1020B800FFFFFFFFFFFFFFF7FFFFBFFF79FEC5B17F
:1020C80083D101D122D901D183C942D1E2D803E910
:1020D80023D144A9278A7CFFFFFFFFFFFFFFFFFFF3
:1020E800FFFFFFFFFFFFFFFFFFFFFFFFFFFFFFFFF8
:1020F800FFF7FFFFBFFFBFFF9EFF0BBB02A942D93F
:1021080001D941D942D122D123E1E3D844D1249144
:10211800EEABFEFFFFFFFFFFFFFFFFFFFFFFDFFF4D
:10212800FFFFFFFFFFFFFFFFFFFFFFFFFFF7FFFFBF
:10213800DFFF5FFFBFFF37FE84A183C901C962D1FA
:1021480002D183D902C944C986C1C68978EEFFFF86
:10215800FFFFFFFFFFFFFFFFFFFFDFFFFFFFFFFFA7
:10216800FFFFFFFFFFFFFEFFFFFFFFFF7FFFDFFF18
:10217800BFFF9DFFB0E443A942B163B923C964C15D
:1021880064B9C6B9248933D5FEFFFEF7FFFFDFFF28
:10219800FFFFFFFFFFFFFFFFFFFFFFFFFFFFFFFF47
:1021A800FFFFFFFFFFFFFFFFDFFFBFFFFFFFDEFFB8
:1021B8009CFF94FD2BC368B2C6B1A6A928AA89A220
:1021C80095E5DEFFFFFFFFFFFFFFDFFFDFFFFFFFFC
:1021D800FFFFFFFFFFFFFFFFFFFFFFFFFFFFFFFF07
:1021E800FFFFFFFFFFFFFFFFDFFFFFFFBDFFBDFF9B
:1021F8009DFFFCFE58FE58FE79FE9EFFDEFFDEFFC7
:10220800DEF7FFFFFFFFFFFFDFFFFFFFFFFFFFFF1F
:10221800FFFFFFFFDFFFDFF7DFFFDEFFFEFFFEFF51
:10222800DFF7FFFFFFFFBEF7FFF7FEF7DFFF9FFFB8
:10223800FEFF9EFFDFFF9EFFDFF7FFFFFFFFFFFFB1
:10224800FFFFFFFFFFFFFFFFFFF7FFF7FFFFDFFFC6
:102258009FF79FEF9EF79DF79DFFBDF7DEEF7DEFA0
:10226800BFF7FFFFFFEFFFE7FFF7BFFFFFEFFFF746
:10227800FFFFFFFFFFF7FFFFFFFFDFFFFFFFFFFF8E
:10228800FFFFFFFFFFF7FFF7FFFFBFFFFFFFFFFFA6
:10229800FFFFFFFFFFFFFFFFFFFFFFFFFFFFFFFF46
:1022A800FFFFFFFFFFFFFFF7DFFFDFFFFFFFFFFF7E
:1022B800BFF7FFFFDFFFDFFFFFFFFFFFFFF7FFF7BE
:1022C800FFF7FFFFFFFFDFFFFFFFFFFFFFFFFFFF3E
:1022D800FFFFFFFFFFFFFFFFBFF7FFFFFFFFFFF756
:1022E800FFFFFFFFFFF7FFEFFFEFFFF7FFFFDFFF46
:1022F8009FFFBFFFDFFFFFFFFFF7FFEFFFEFFFF7D6
:10230800FFFFDFFFFFFFFFFFFFFFFFFFFFFFFFFFF5
:10231800FFFFFFFFFFFFFFFFFFFFFFFFFEFFDDFFE8
:10232800FEEFFEEFFEF7FEF7FEF7FFFFBFFFBFFF72
:10233800DFFFFFFFFFFFFFF7FFF7FFFFFFFFDFFFF5
:10234800FFFFFFFFFFFFFFFFFFFFFFFFFFF7FFFF9D
:10235800FFFFBEF7DAEEB5CDCDA32A930A834B8BE8
:102368002A7BF1AC57CE3BE7BEFFFFFFFFFFFFFF25
:10237800FFFFFFFFFFFFFFFFFFFFFFFFFFFFFFFF65
:10238800DFFFFFFFFFFFFFFFFFF7FFF7FFFFBEFFC6
:10239800DAFE4BAB2279228104B18290E388A681D0
:1023A800D2C45BFFFEFFFFFFFFFFFFFFDFFFDFFF82
:1023B800DFFFFFFFFFFFFFFFFFFFFFFFFFFFFFFF45
:1023C800FFFFFFFFFFFFFFFFFFFFBDFF91DC6491F1
:1023D80043A984C1E4E804E124D145B1A69137F6C4
:1023E800FEFFFEF7FFF7FFFFFFFFDFFFDFFFFFFF47
:1023F800FFF7FFEFFFFFFFFFFFFFFFFFFFFFFFFFFD
:10240800DFF7FFFF9DFF99FE859123B123D903E9EB
:1024180022D102D923D924D104A9E7995CFFFEFF70
:10242800FFF7FFF7FFFFFFFFDFFFFFFFFFFFFFF7EC
:10243800FFFFFFFFFFFFFFFFFFFFFFF7FFFFFFFFAC
:10244800BEFFEEC3039964D1C2E881F0C1B181B97E
:1024580022C924D104C1259913E5DEFFFFF7FFEF58
:10246800FFF7FFFFFFFFDFFFFFFFFFFFFEFFFFFF9D
:10247800FFFFFFFFFFFFFFFFFFFFDFFF3BFFE4B9A9
:1024880041C922D123C963C903E123D903C944D16E
:1024980025C124A9CED3BCFFFDFFFEFFDFFFDFFF70
:1024A800FFFFFFFFFFFFFFFFFEFFFFFFFFFFFFFF35
:1024B800FFFFFFFFFFFFDFFF57FE62A921C142D1E7
:1024C80063C963C163B922B183C922C143C143A9A6
:1024D800ACCB5BFFFEFFFFFFFFFFFFFFFFF7FFFF38
:1024E800FFFFDFFFFFFFFFFFFFFFFFFFFFFFFFFF14
:1024F800FFFF9FFF33F501A921C963D143C1C1B0D3
:10250800669A6AD341B141C962D141B12ABBFAFE88
:10251800FEFFFFFFFFFFFFF7FFF7FFF7FFFFBFFF1C
:10252800FFFFFFFFFFFFFFFFFFFFFFFFFFF7BEFFFC
:1025380050ECE1B042D163C923B980A88FBC93FDA8
:10254800C0A8E0D800E121B9C8BAFAFEDFFFFFFF52
:10255800FFFFFFF7FFF7FFF7FFFFDFFFFFFFFFFFBB
:10256800FFFFFFFFFFFFFFF7FFF7BFFFAEDBA0B8DE
:1025780022D163C163B902B957E674FDC2B8A2E8B3
:10258800A1E8E2C847B279FEDFFFFFFFFFFFFFFFC8
:10259800FFFFFFFFFFFFFFFFFFFFFFFFFFFFFFFF43
:1025A800FFFFFFF7FFEFDFFF2CDBA1C801D162B906
:1025B80083B984C1DAE696F5A3A0C4D0A3D0C3B08A
:1025C800C7A1D7EDDFFFFFFFFFF7FFF7FFFFFFFF13
:1025D800FFFFFFFFFFFFFFFFFFFFFFFFFFFFFFF70B
:1025E800FFEFDEFFEBDAA1D022D983B963B185C151
:1025F800DBDEFCFEEDAA0ECB0DCB2DC3F0C39AFE9D
:10260800DFFFFFF7FFEFFFEFFFFFDFFFDFFFDFFF7A
:10261800FFFFFFFFFFFFFFFFDFFFFFF7FFEFBEFF3B
:102628008ADA81D002D983B963A9C5C9BAD6DFFFCE
:10263800DFFFBFFFFFFFDFFF9EFFBEFFDFFFFFFFE4
:10264800FFF7FFF7FFFFDFFFDFFFDFFFFFFFFFFF02
:10265800FFFFFFFFDFFFFFF7FFEF9EFFABDAA1D819
:10266800E1D0A3C142A9E6D1DAD6FFFFFFFFFFFF01
:10267800FEEFFFF7FEFFFEFFDFFFFFFFFFFFFFFF9D
:10268800DFFFDFFFFFFFFFFFFFFFFFFFFFFFFFFF92
:10269800FFFFFFF7FFEFBEFFCBDAA1D001D983C15F
:1026A80063B1E6D1DACEDFFF1BFFDAFE5BFF3AFF4C
:1026B8007BF7FEFFFFFFFFFFFFFFFFFFDFFFDFFFEF
:1026C800FFFFFFFFFFFFFFFFFFFFFFFFFFFFFFF71A
:1026D800FFEFBFFFEBD2A1C822D962C163B9A5C978
:1026E8007BEFF6ED449124B144B164912BA31BF721
:1026F800FFFFFFFFFFFFFFFFFFFFFFFFFFFFFFFFE2
:10270800FFFFFFFFFFFFFFFFFFFFFFFFFFF7BFFF19
:102718004CD3A1C042D942C143B923C1D5DDB1ECE4
:10272800A1B0E2E8E2E802B9A9B21BFFFFFFFFFF90
:10273800FFFFFFFFFFFFFFFFFFFFFFFFFFFFFFFFA1
:10274800FFFFFFFFFFFFFFFFFFF7BFFF0FDCC0B07A
:1027580042D942C943C102B9069A06C2E1D0C0E8CB
:1027680021E901B909BBFAFEDFFFDFFFDFFFFFFF49
:10277800FFFFFFF7FFFFFFFFFFFFFFFFFFFFFFFF69
:10278800FFFFFFFFFFFFBFFFF2F4E1A821C963D1FC
:1027980043C923C123B923C122D141D942D141A17F
:1027A80029B35BFFDFFFBFFFDFFFFFFFFFFFFFF77F
:1027B800FFF7FFFFFEFFFFFFFFFFFFFFFFFFFFFF2A
:1027C800FFFFBFFF37FE62B100C943D923C943C920
:1027D80003D143D143D163D123C1A5B12BB33BFF6F
:1027E800FEFFFFFFFFFFFFFFFFFFFFFFFFFFDFFF12
:1027F800FEFFFFFFFFFFFFFFFFFFFFFFFFFFBFFF22
:102808003BFFE4B900C143D902C943C922D143C936
:1028180023C904C925D104B10CBB7BFFFEFFFFF718
:10282800FFF7FFF7FFF7FFFFDFFFBFFFFFFFFFF730
:10283800FFF7FFFFDFFFBFFFFFFFFFF7FDFF4FD4ED
:10284800C2B0E3E003E122D1C5E824D182C161C965
:1028580021C923C10BC35DFFDFFFDFFFDFFFDFFF00
:10286800FFFFFFFFFFFFFFFFFFFFFFFFFFF7FFFF78
:10287800FFFFFFFFFFFFFFF7FDFF1AFFA5B1C2B87B
:1028880043D142C146C1E2A821B942D122E123C1C4
:102898000BC37DFFFFFFFFFFDFFFFFFFFFFFFFFF12
:1028A800FFFFFFFFDFFFDFFFFFFFFFF7FFF7FFF788
:1028B800FFF7FFF7FFFFBCFFD9FE0AC3A4A1A5A13C
:1028C8004682C8AAA4B902D9E2E002B96BBBBDFF2F
:1028D800FFFFFFFFFFFFFFFFFFFFFFFFFFFFFFFF00
:1028E800DFFFDFFFDFFFFFFFFFF7FFF7FFF7FFF770
:1028F800DFF7FFFFDDFFDDFF1BFF79FE18D79AFF2B
:1029080047C2E2D0C2D843B1CCB3BCFFFFF7FFFF48
:10291800FFFFFFFFFFFFFFFFFFFFFFFFFFFFDFFFDF
:10292800DFFFFFFFFFFFFFF7FFFFDFFFBFFFFFFF37
:10293800FFFFBEFFBEFF9FFFFDFFBBFFE6B9C2D092
:1029480003D963A9CCABFDFFFFFFFFFFFFFFFFFF2C
:10295800FFFFFFFFFFFFFFFFFFFFDFFFBFFFDFFFFF
:10296800FFFFFFFFDFF7DFFF9FFFD3CCCEB330CCF5
:10297800CECB6ECB8DB34CCB03B9E3D823D943A1CF
:10298800CCB3DDFFDFFFDFFFFFFFFFFFFFFFFFFF30
:10299800FFFFFFFFDFFFBFFFDFFFFFFFFFFFFFF7C7
:1029A800FFFFDEFF7DFF28A2E29002A9A1A843C194
:1029B80025B924C103D1E3E023D963B1CDC39CFF7A
:1029C800BFFFDFFFFFFFFFFFFFFFFFFFFFFFFFFF6F
:1029D800DFFFDFFFDFFFFFFFFFFFFFFFFEF7FEFF69
:1029E8007BFF47B243C122D942D920C9E3D044D1A1
:1029F80002D123D922D143B1ADC3BDFFFFFFFFFFF1
:102A0800FFFFFFFFFFFFFFFFFFFFFFFFFFFFFFFFCE
:102A1800FFFFFFFFFEFFFFFFFEFFFEFF9CFF68BA00
:102A2800E2C001E121D961C922D162C941C922D9D3
:102A380023D923B1CDC3FDFFFFF7FFF7FFF7FFFF52
:102A4800FFFFDFFFDFFFFFFFFFFFFFFFFFFFFFFFCE
:102A5800FFFFDFFFFFFFBEFF9DFF48BAE3D002E99B
:102A680001D982D121C982D141C902D9E3E024C95F
:102A7800EFD3FEFFFFF7FFF7FFFFFFFFFFFFFFFFAB
:102A8800FFFFFFFFDFFFDFFFFFFFFFF7FFFFDFFFB6
:102A9800DFFFDFFF9DFF07B2A2C0E2E8E1E021D13E
:102AA80041D162C942C923E1A3E0C4C0AED3DEFF6D
:102AB800FFFFFFFFFFFFFFFFFFFFFFFFFFFFFFFF1E
:102AC800DFFFDFFFFFFFFFF7FFFFFFFFDFFFDFFF96
:102AD8007DFFCAA203A123C122B922A942B142A102
:102AE80022A103B1E4B866A930C4BEFFFFFFDFFF2F
:102AF800DFFFFFFFFFF7FFF7FFFFFFFFDFFFDFFF4E
:102B0800FFFFFFF7FFFFFFFFFFFFFFFFFFFF58E695
:102B180095E574F5B4EDF5EDB3F515F635F616FE55
:102B2800F6FD37F6FAEEFEFFFFFFBFFFDFFFFFFF00
:102B3800FFF7FFF7FFFFFFFFFFFFFFFFFFFFFEFFAE
:102B4800FEFFFFFFFFFFFFF7FFF7FFF7FFFFFFFFA6
:102B5800FFFFFFF7FEFFFEFFFEFFFDFFFEFFFEF794
:102B6800FEEFFEF7FFFFBFFFDFFFFFFFFFF7FFFFEF
:102B7800FFFFDFFFFFFFFFFFFFFFFEFFFEFFFFFF7F
:102B8800FFFFFFF7FFF7FFFFFFFFFFFFFFFFFFF765
:102B9800DFFFFFFFFFFFFFFFFFF7FFEFFEEFFFFF86
:102BA800DFFFDFFFFFFFFFFFFFF7FFFFFFFFFFFF75
:102BB8009FEF9FEF7EF77DF77CFF7CF79DF77DF712
:102BC800DFFFDFFFBEFFBEFF9FFF9FFF9FFF9FFF4F
:102BD800BFFFDFFFDFFFFFFFFFFFDEFFDFFFBFFFFE
:102BE800FFFFFFFFFFFFFFFFFFFFFFFFFFFFFFFFED
:102BF800DFFFDFFFFFFFFFFFFFFFDFFFDFFFFFFF5D
:102C0800FFFFFEFF7CFF9CFF1AFF7CFFBEFFFFFF5C
:102C1800DFFFDFFFFFFFFFFFFFFFFFFFDFFFDFFF3C
:102C2800FFFFFFFFFFFFDFFFFFFFFFFFFFFFFFFFCC
:102C3800FFFFFFFFDFFFDFFFDFFFDFFFFFFF3BFFE0
:102C480013D5EFD394FD78FE9DFFDFFFDFFFFFFF75
:102C5800FFFFFFF7FFFFFFFFDFFFFFFFFFFFFFFFA4
:102C6800FFFFDFFFFFFFFFFFFFFFFFFFFFFFFFF794
:102C7800FFFFDFFFBFFFDFFF7DF754CDE791A3988C
:102C8800C2888DBB3CFFBFFF9FF7BFFFFFFFFFFF61
:102C9800FFFFFFFFFFFFFFFFFFFFFFF7FFFFFFFF44
:102CA800FFF7FFFFFFFFFFFFFFFFFFF7FFF7DFFF64
:102CB800DFFFFFFFBEFF54DDE8B146D145B98EDB2B
:102CC8001BFF5DEFBFF7DFFFFFFFFEFFFEFFFFFF0C
:102CD800FFFFFFFFFFFFFFF7FFF7FFFFFFF7FFFF14
:102CE800FFFFFFFFFFFFFFF7FFF7FFFFFFFFFFFFFC
:102CF800DEFFB5ED08C2E5D8E4C88EEB9DFFFFFF07
:102D0800FFFFFFFFFFFFFFFFFEFFFFFFFFFFFFFFCC
:102D1800FFFFFFF7FFF7FFFFFFF7FFFFFFFFFFFFD3
:102D2800FFFFFFFFFFFFFFFFFFFFFFF7FEFFF6EDCF
:102D380008C205E9C4E08EF39DFFFFF7FFF7FFFF28
:102D4800FFFFFFFFFEFFFEFFFFFFDFFFFFFFFFF7B5
:102D5800FFFFFFFFFFFFFFFFDFFFDFFFFFFFFFFFBB
:102D6800FFFFDFFFFFFFFFEFFEF7F5E507BA05E11D
:102D7800A4E88EFB9DFFFFF7FFEFFFFFDFFFFEFFDD
:102D8800FEFFFEFFDFFFDFFFFFFFFFFFFFFFFFFF8D
:102D9800FFFFFFFFDFFFBFFFDFFFFFFFFFFFFFFFBB
:102DA800FFF7FFEFFEEF97EE89CA04D9A3E8AEFB61
:102DB800BCFFFFEFFFEFFFFFFFFFFEFFFEFFFEFF81
:102DC800DFFFBFFFDFFFFFFFFFFFFFFFFFFFFFFF8B
:102DD800DFFFFFFFFFFFFFFFFFFFDFFFBFFFFFFF7B
:102DE800BAFE4DDB65D143D9C4E88DEBBBFFFBFFD1
:102DF800DAFFFDFFFFF7FFEFFFF7FFFFDEFFFFFF43
:102E0800FFFFFFFFFFFFFFFFFFFFFFFFDFFFFFFFEA
:102E1800FFFFFFFFDFFFFFFFFFFFBEFFD3DC86B131
:102E2800E3C064E104F9C7D1CABA6CC3EEDBB2E40B
:102E38005EFFFFEFFFF7FFFFFEFFFFFFFFFFFFFF54
:102E4800FFFFFFFFFFFFFFFFFFFFFFFFFFFFFFFF8A
:102E5800FFFFFFFFFFFF9EFF51DC66C144E164E90D
:102E6800E4F846E105C905D9C4D846C17BFEFFFF91
:102E7800FFF7FFFFFFFFFFFFFFFFFFFFFFFFFFF76A
:102E8800FFFFFFFFFFFFFFFFFFFFFFFFFFFFFFF752
:102E9800FFF7DEFF52EC66D145E923E944F945E93D
:102EA80006F1A5F884F847E97BFEFFFFFFF7FFFF6F
:102EB800FFFFFFFFFFFFDFFFFFFFFFF7FFFFFFFF42
:102EC800FFFFFFFFFFFFFFFFFFFFFFF7FFF7DEFF3B
:102ED80031EC05D1E4E823F142E144D987F9C5F89A
:102EE80083F866E1BAFEFFFFFFF7FFFFFFFFFFF77A
:102EF800FFFFDFFFFFFFFFFFFFFFFFFFFFFFFFFFFA
:102F0800FFFFFFFFFFFFFFF7FEEFDEFF52F426D1C2
:102F180004F123F9A3E983D144D1E3F8E3F885D197
:102F2800F9FEFFF7FFFFFFFFFFFFFFF7FFFFFFFFC0
:102F3800DFFFFFFFFFFFFFFFFFFFFFFFFFFFFFFFB9
:102F4800FFFFFFF7FFF7DEFF31E425C104E9E3F8EF
:102F580002E963D164D144E923F1C5C9F9FEFFFF51
:102F6800FFFFDFFFFFFFFFF7FFF7FFFFFFFFFFFF99
:102F7800FFFFFFFFFFFFFFFFFFFFFFFFFFFFFFFF59
:102F8800FFF7DFFF51CCC7B986E9E3F0E3F865E165
:102F980007E264F1E2F0C5D198FEFFFFFFFFBFFF33
:102FA800DFFFFFF7FFF7FFFFFFFFFFFFFFFFFFFF59
:102FB800FFFFFFFFFFFFFFFFDFFFFFFFFFFFBEFF7A
:102FC80074D5AABA65D1E4F0C3F804D903C1C3D84B
:102FD800C2F0A6D93CFFFFFFFFFFDFFFDFFFFFF7CF
:102FE800FFF7FFFFFEFFFEFFFFFFFFFFFFFFFFFFF3
:102FF800FFFFFFFFFFFFDFFFBFFFFFFFDDFFB5FDA7
:1030080028DA62E0E4E8C3C00090A2C8A2E0AAF20D
:103018005CFFFFF7FFF7FFFFDFFFFFFFFFFFFFFF8B
:10302800FEFFFEFFFFFFFFFFFFFFFFFFFFFFFFFFAA
:10303800FFFFDFFFDFFFFFFFFEFF77FE48CAC4E8A0
:1030480024E145C9008824C9E3D0EFFB9EFFFFEFC8
:10305800FFEFFFFFFFFFFFFFFFFFFFFFFEFFFEFF8A
:10306800FFFFFFFFFFFFFFFFFFFFFFFFFFFFDFFF88
:10307800DFFFDFF7FEF777EE28C2C4E003E186D969
:10308800C3B045C123B933FDBEFFFFEFFFEFFFFF1C
:10309800DFFFFFFFFFFFFFFFFFFFFFFFFFFFFFFF58
:1030A800FFFFFFFFFFFFFFFFFFFFDFFFDFFFFFFF68
:1030B800FEFF77F669CAA3D8E3E025E1C4C825C1B5
:1030C800C5B999FEBFFFFFF7FFFFFFFFDFFFFFFF57
:1030D800FFFFFFFFFFFFFFFFFFFFFFFFFFFFFFFFF8
:1030E800FFFFFFFFFFFFFFFFFFFFFFFFFEFFF6ED04
:1030F80089CAE4D823E983D863D005C9C9CA9CFF23
:10310800DFFFFFFFFFFFDFFFDFFFFFFFFFFFFFFF27
:10311800FFFFFFFFFFFFFFFFFFF7FFFFDFFFDFFFFF
:10312800FFFFFFF7FFF7FFFFFEFF17FE49CAE4D8CE
:1031380083D961D064E0E5D0EEEBBCFFDFFFFFFF91
:10314800FFFFFFFFFFFFFFFFFFFFFFFFFFFFFFFF87
:10315800FFFFFFFFFFF7FFFFDFFFDFFFFFFFFFF7C7
:10316800FFF7FFF7DEFF17FE48CA25E103CAA2C82A
:10317800C5F005D112FDDCFFFFFFFFF7FFFFFFFFE2
:10318800FFFFFFFFFFFFFFFFFFFFFFFFFFFFFFFF47
:10319800FFFFDFFFDFFFDFFFFFFFFFFFFFFFFFFF97
:1031A800FFFF59EE69C245E1C6D982E883F887D1A5
:1031B800BBFEFFFFDFF7FFFFFEFFFFF7FFF7FFFF95
:1031C800DFFFFFFFFFFFFFFFFFFFFFFFFFFFFFFF27
:1031D800DFFFFFFFFFFFFFFFFFFFFFFFFFFF59F6C6
:1031E80049CA45E9E6E1E4F0E4F86AE23DFFFFFF99
:1031F800FFFFFFFFFEFFFFF7FFF7FFFFDFFFFFFF08
:10320800FFFFFFFFFFFFFFF7FFF7FFFFFFFFFFFFD6
:10321800FFFFFFFFFFFFFFFFDFFF39F649CA66F137
:1032280006E265F145F16EF39EFFFFFFFFFFFFFF2A
:10323800FEFFFFFFFFFFFFFFDFFFFFFFFFFFFFFFB7
:10324800FFFFFFF7FFF7FFFFFFFFFFFFFFFFFFFF96
:10325800FFFFFFFFDFFF39F649CA86F107EAE7F10A
:1032680086D9B2FCBEFFFFF7FFFFFFFFFEFFFFFF9F
:10327800FFFFFFFFFFFFFFFFFFFFFFFFFFFFFFF75E
:10328800FFF7FFFFFFFFFFFFFFFFFFFFFEFFFFFF4F
:10329800FFFF39F669C2C7F128F228F207D2D6FD36
:1032A800BFFFFFFFFFFFFFFFFEFFFFFFFFFFFFFF67
:1032B800FFFFFFFFFFFFFFFFFFFFFFF7FFFFFFFF1E
:1032C800FFFFFFFFFFFFFFFFFEFFFFFFFFFF59EEBE
:1032D80089C207F229FA48EA0ACBFAFEDFFFFFFFA4
:1032E800FFFFFFFFFFFFFFFFFFFFFFFFFFFFFFFFE6
:1032F800FFFFFFFFFFFFFFFFFFFFDFFFDFFFDFFF36
:10330800FFFFFFFFFEFFFFFFFFFF58EEA9BA48EAE5
:103318004AFA69E20EDC9CFFDFFFFFFFFFFFFFFFB9
:10332800FFFFDFFFFFFFFFFFFFFFFFFFFFFFFFFFC5
:10333800FFFFFFFFDFFFDFFFBFFFDFFFFFFFFFFF35
:10334800FEFFFFFFFFFF58E6A9BA68EA6BFA69DAE1
:10335800D2E4DDFFDFFFDFFFFFFFFFFFFFFFDFFF3F
:10336800FFFFFFFFFFFFFFFFFFFFFFFFFFFFFFFF65
:10337800DFFFBFFFBFFFFFFFFFFFFEF7FFFFFFFFFE
:10338800FFFF59EE8AC269FA2AFACBE217FEDEFF7E
:10339800FFFFFFFFFFF7FFF7FFFFDFFFFFFFFFFF65
:1033A800FFFFFFFFFFFFFFFFFFFFFFFFDFFFDFFF65
:1033B800DFFFFFFFFFF7FFF7FFFFFFFFFFFF18EE3D
:1033C8006AC209FAACFA2DE3BAFEDFFFFFFFFFFF7E
:1033D800FFFFFFF7FFFFDFFFFFFFFFFFFFFFFFFF1D
:1033E800FFFFFFFFFFFFFFFFFFFFDFFFFFFFFFF70D
:1033F800FFEFFFF7FFFFFFFFDFFFF9F56BD26AFA78
:10340800ABFA8EE37EFFFFFFFFFFFFFFFFF7FFF73B
:10341800FFFFFFFFFFFFFFFFFFF7FFFFFFFFDFFFDC
:10342800FFFFFFFFFFFFFFFFFFFFFFF7FFEFFFF7C4
:10343800DEFFDFFFDFFF3AF64AC24AFA2CFBB2F49E
:10344800BFFFFFFFDFFFFFFFFFFFFFF7FFFFFFFFEC
:10345800FFFFFFFFFFF7FFFFFFFFDFFFFFFFFFFF9C
:10346800FFFFFFFFFFFFFFF7FFEFFFFFFFFFFFFF7C
:10347800DFFFDBFECBBAECFAEACA95F5DFFFFFFF08
:10348800FFFFFFFFFFFFFFFFFFFFDFFFFFFFFFFF64
:10349800FFF7FFFFFFFFDFFFFFFFFFFFFFFFFFFF5C
:1034A800FFFFFFFFFFF7FFFFBFFFDFFFFFFFFFFF8C
:1034B800AEB347BA0DCCB9FEFFFFFFFFFFFFFFFF1A
:1034C800FEFFFFFFFFFFDFFFFFFFFFFFFFF7FFF735
:1034D800FFFFDFFFFFFFFFFFFFFFFFFFFFFFFFFF14
:1034E800FFFFDFFFBFFFBFFFFFEFFFF7B8F636FEB6
:1034F80059FFDDFFFFFFFFEFFFFFFFFFFFFFDFFFCC
:10350800DFFFDFFFDFFFFFFFFFF7FFF7FFFFDFFF53
:10351800FFFFFFFFFFFFFFFFDFFFFFFFDFFFBFFF33
:103528009FFFDFFFFFEFFFEFFDFFBAFFDAFFDDFFD1
:10353800FFFFFFEFFFFFFFFFFFFFFFFFDFFFDFFFE3
:10354800DFFFFFFFFFF7FFF7FFFFDFFFFFFFFFFFD3
:10355800FFFFFFFFFFFFFFFFFFFFFFFFFFFFFFFF73
:10356800FFFFFFFFFFFFFFFFFFFFFFFFFFFFFFFF63
:10357800FFFFFFFFFFFFFFFFFFFFFFFFFFFFFFFF53
:10358800FFFFFFFFFFFFFFFFFFFFFFFFFFFFFFFF43
:10359800FFFFFFFFFFFFFFFFFFFFFFFFFFFFFFFF33
:1035A800FFFFFFFFFFFFFFFFFFFFFFFFFFFFFFFF23
:1035B800FFFFFFFFFFFFFFFFFFFFFFFFFFFFFFFF13
:1035C800FFFFFFFFFFFFFFFFFFFFFFFFFFFFFFFF03
:1035D800FFFFFFFFFFFFFFFFFFFFFFFFFFFFFFFFF3
:1035E800FFFFFFFFFFFFFFFFFFFFFFFFFFFFFFFFE3
:1035F800FFFFFFFFFFFFFFFFFFFFFFFFFFFFFFFFD3
:10360800FFFFFFFFFFFFFFFFFFFFFFFFFFFFFFFFC2
:10361800FFFFFFFFFFFFFFFFFFFFFFFFFFFFFFFFB2
:10362800FFFFFFFFFFFFFFFFFFFFFFFFFFFFFFFFA2
:10363800FFFFFFFFFFFFFFFFFFFFFFFFFFFFFFFF92
:10364800FFFFFFFFFFFFFFFFFFFFFFFFFFFFFFFF82
:10365800FFFFFFFFFFFFFFFFFFFFFFFFFFFFFFFF72
:10366800FFFFFFFFFFFFFFFFFFFFFFFFFFFFFFFF62
:10367800FFFFFFFFFFFFFFFFFFFFFFFFFFFFFFFF52
:10368800FFFFFFFFFFFFFFFFFFFFFFFFFFFFFFFF42
:10369800FFFFFFFFFFFFFFFFFFFFFFFFFFFFFFFF32
:1036A800FFFFFFFFFFFFFFFFFFFFFFFFFFFFFFFF22
:1036B800FFFFFFFFFFFFFFFFFFFFFFFFFFFFFFFF12
:1036C800FFFFFFFFFFFFFFFFFFFFFFFFFFFFFFFF02
:1036D800FFFFFFFFFFFFFFFFFFFFFFFFFFFFFFFFF2
:1036E800FFFFFFFFFFFFFFFFFFFFFFFFFFFFFFFFE2
:1036F800FFFFFFFFFFFFFFFFFFFFFFFFFFFFFFFFD2
:10370800FFFFFFFFFFFFFFFFFFFFFFFFFFFFFFFFC1
:10371800FFFFFFFFFFFFFFFFFFFFFFFFFFFFFFFFB1
:10372800FFFFFFFFFFFFFFFFFFFFFFFFFFFFFFFFA1
:10373800FFFFFFFFFFF7FFFFFFFFFFFFDFFFDEFFDA
:103748005CFFD3F4D4FC52FC8EFC50FC75FC35FCB9
:103758005BFEFFFFFEE7FFF7DFFFDFFFFFFFFFFF77
:10376800FFFFDFFFFFFFFFEFFFFFFFFFFFFFFFFF91
:10377800FFFFFFFFDFF7FFFFFFFFBEFFDAFEC78196
:10378800C48805A9E0B8E3B0C698E780F5D4FFFF80
:10379800FEF7FFFFDFFFDFFFFFFFFFFFFFFFDFFF9A
:1037A800FFFFFFF7FFFFFFFFFFFFFFFFFFFFFFFF29
:1037B800FFFFFFFFBEFFDEFFBEFF79FE92F4A7A961
:1037C80023D924B193ECBCFE9EFFDEFFDEFFDFFFB2
:1037D800DFFFFFFFFFFFFFFFFFFFDFFFFFFFFFFF31
:1037E800FFFFFFFFFFFFFFFFFFFFFFFFFFFFDFFF01
:1037F800FFFFFFFFDEFF9DFF5DFF8FCB20D8AAE212
:103808007DFFFFFFDEFFDFFFDFFFDFFFFFFFFFFFC3
:10381800FFF7FFF7FFFFDFFFDFFFFFFFFFFFFFFF00
:10382800FFFFFFFFFFFFFFFFFFFFBFFFFFFFFEFFE1
:10383800FEFF7DFF7DFF92DC00D84CEBBDFFFEE76D
:10384800FFF7DFFF7EFFBFFFFFFFFFFFFFF7FFF779
:10385800FFFFFFFFDFFFDFFFFFFFFFFFFFFFFFFFB0
:10386800FFFFFFFFDFFFFFFFFFFFFFFFFEFFDEFFA2
:103878007DFFD3D400E02CE3FEFFFFE7FFF7BFFF97
:10388800BFFFDFFFFFFFFFFFFFFFFFFFFFFFFFFFA0
:10389800DFFFDFFFFFFFFFFFFFFFFFFFFFFFFFFF70
:1038A800FFFFFFFFFFFFFFF7FFFFBEFFBEFFF4CCE8
:1038B80001D84CDBFEFFFFE7FFF7BFFFBFFFFFFFAD
:1038C800FFF7FFFFFFFFFFFFFFFFFFFFFFFFDFFF28
:1038D800FFFFFFFFFFFFFFFFFFFFFFFFFFFFFFFFF0
:1038E800FFF7FFF7FFFFFFFFBEFFF4CC21D06DDB32
:1038F800DEFFFFEFFFFFDFFFFFFFFFF7FFF7FFFF31
:10390800FFFFFFFFFFFFFFFFFFFFDFFFFFFFFFFFDF
:10391800FFFFFFFFFFFFFFFFFFFFFFFFFFFFFFF7B7
:10392800FFFFDFFFBFFFD4CC21C84DE3BEFFFFF789
:10393800FFFFDFFFFFFFFFF7FFF7FFFFFFFFFFFFBF
:10394800FFFFFFFFFFFFFFFFFFFFFFFFFFFFFFFF7F
:10395800FFFFFFFFFFFFFFFFFFFFFFFFFFFFBFFFAF
:103968009FFFD4D421C84DE3BEFFFFF7FFFFFFFF41
:10397800FFFFFFFFFFFFFFFFFFFFFFFFFFFFFFFF4F
:10398800FFFFFFFFFFFFFFFFFFFFFFFFFFFFFFFF3F
:10399800FFFFFFFFFFFFFFFFFFFFBFFF9FFFD4D425
:1039A80001D02DEBBEFFFFF7FFF7FFFFDFFFFFFFA3
:1039B800FFFFFFFFFFFFFFFFFFFFFFFFFFFFFFFF0F
:1039C800FFFFFFFFFFFFFFFFFFFFFFFFFFFFFFFFFF
:1039D800FFFFFFFFFFFFBFFF9FFFD4D401D82DEBF0
:1039E800BEFFFFEFFFF7FFFFDFFFDFFFFFFFFFFF78
:1039F800FFFFFFFFFFFFFFFFFFFFFFFFFFFFFFFFCF
:103A0800FFFFFFFFFFFFFFFFFFFFFFFFFFFFFFFFBE
:103A1800FFFFBEFF9EFFD4D401D82CEBDEFFFFEFE3
:103A2800FFF7FFFFDFFFDFFFFFFFFFFFFFFFFFFFE6
:103A3800FFFFFFFFFFFFFFFFFFFFFFFFFFFFFFFF8E
:103A4800FFFFFFFFFFFFFFFFFFFFFFFFFFFFDEFF9F
:103A5800BEFFF4CC00D82CEBDEFFFFEFFFF7FFFF33
:103A6800DFFFFFFFFFFFFFFFFFFFFFFFFFFFFFFF7E
:103A7800FFFFFFFFFFFFFFFFFFFFFFFFFFFFFFFF4E
:103A8800DFFFDFFFFFFFFFFFFFFFDEFFDEFF13C5E6
:103A980000D04CE3DEFFFFEFFFF7FFFFFFFFFFFF64
:103AA800FFFFFFFFFFFFFFFFFFFFFFFFFFFFFFFF1E
:103AB800FFFFFFFFFFFFFFFFFFFFDFFFDFFFDFFF6E
:103AC800FFFFFFFFFFFFFEFFDEFF13C520D04CE323
:103AD800DEFFFFF7FFFFFFFFFFFFFFFFFFFFFFFF17
:103AE800DFFFFFFFFFFFFFFFFFFFFFFFFFFFFFF706
:103AF800FFF7FFFFFFFFDFFFDFFFFFFFFFF7FFFF1E
:103B0800DEFFBEFF9EFFB4D401D06CDBFBFFFCCF11
:103B1800FDD7FFFFBFFFDFFFFFFFFFF7FFFFFFFF3F
:103B2800FEFFFEFFFEFFFFFFFFFFFFF7FFF7FFFFB0
:103B3800FFFFDFFFDFFFFFFFFFFFFFFFFFFFDFFFED
:103B48009FFF93CC21C00CFB1BFFBDFFFEFFFFF7BF
:103B5800FFFFFFFFFFFFFFFFFFFFDFFFDFFFFFFFAD
:103B6800FFFFFFF7FFFFFFF7FFF7FFFFFFFFDFFF95
:103B7800DFFFFFFFFFFFFEF7FFFFBEFF7EFFB3CCB7
:103B880041C0A8F9EEFAEDEAF8FDDEFFFFEFFFF716
:103B9800FFFFFFFFFFFFDFFFDFFFDFFFFFFFFFEF9D
:103BA800FFFFFFFFFFFFFFFFFFFFDFFFFFFFFFFF3D
:103BB800FFFFFFF7FFFF9EFF9FFFD4CC63E063D8B2
:103BC80084C0C490F4D4FFFFFFFFFFFFFFFFFFFF97
:103BD800FFF7FFFFDFFFDFFFFFFFFFEFFFFFFFFF45
:103BE800FFFFFFFFFFFFDFFFFFFFFFFFFFF7FFFF05
:103BF800FFFF9EFFBFFF72BC02D0C8D1D2EC1AFFF4
:103C0800BDFFDFFFBFFFDFFFFFFFFFEFFFEFFFF7A6
:103C1800FFFFFFFFFFFFFFFFFFFFFFFFFFFFFFFFAC
:103C2800FFFFFFFFFFFFFFFFFFFFFFFFFFFFBEFFDD
:103C3800BFFF31ACC5B099FEFDFFFDE7FFF7BFFF41
:103C48007FFFDFFFFFFFFFF7FFF7FFFFFFFFFFFF2C
:103C5800FFFFFFFFFFFFFFFFFFFFFFFFFFFFFFFF6C
:103C6800FFFFFFFFFFFFFFFFFFFFDFFFBEFF96D550
:103C7800B7EDBEFFDDEFFEEFFFF7DFFFDFFFDFFF92
:103C8800FFFFFFFFFFFFFFFFFFFFFFFFFFFFFFFF3C
:103C9800FFFFFFFFFFFFFFFFFFFFFFFFFFFFFFFF2C
:103CA800FFFFFFFFFFFFFFFFDFFFBFFFFFFFFFFF7C
:103CB800FFFFFFFFDFFFFFFFFFFFFFFFDFFFFFFF4C
:103CC800FFFFFEFFFEFFFFFFFFFFFFFFFFFFFFFFFE
:103CD800FFFFFFFFFFFFFFFFFFFFFFFFFFFFFFFFEC
:103CE800FFFFFFFFDFFFDFFFFFFFDFFFDFFFDFFF7C
:103CF800FFFFFFFFFFFFDFFFDFFFFFFFFFFFFFFF0C
:103D0800FFFFDFFFFFFFFFFFFFFFFFFFFFFFFFFFDB
:103D1800FFFFFFFFFFFFFFFFFFFFFFFFFFFFFFFFAB
:103D2800FFFFDFFFFFFFDFFFFFFFFFFFFFFFFFFFDB
:103D3800FFFFFFFFFFFFFFFFFFF7FFFFFFFFDFFFB3
:103D4800DFFFFFFFFFFFFFFFFFFFFFFFFFFFFFFF9B
:103D5800FFFFFFFFFFFFFFFFFFFFFFFFFFFFFFFF6B
:103D6800FFFFFFFFFFFFFFFFFFFFFFFFFFFFFFFF5B
:103D7800FFF7FFF7FFFFFFFFFFFFFFFFDFFFDFFF9B
:103D8800FFFFFFFFFFFFFFFFFFFFFFFFFFFFFFFF3B
:103D9800FFFFFFFFFFFFFFFFFFFFFFFFFFFFFFFF2B
:103DA800FFFFFFFFFFFFFFFFFFFFFFF7FFF7FFFF2B
:103DB800FFFFFFFFFFFFFFF7FFFFDFFFFFFFFFFF33
:103DC800FFFFFFFFFFFFFFFFFFFFFFFFFFFFFFFFFB
:103DD800FFFFFFFFFFFFFFFFDFFFFFFFFFFFFFFF0B
:103DE800FFFFFFFFFFFFFFFFFFFFFFFFFFFFFFFFDB
:103DF800FFFFFFF7FFFFFFFFFFFFFFFFFFFFFFFFD3
:103E0800FFFFFFFFFFFFFFFFFFFFFFFFFFFFFFFFBA
:103E1800FFFFFFFFDFFFDFFFFFFFFFFFFFFFFFFFEA
:103E2800DFFFDFFFDFFFFFFFFFFFFFFFFFFFFFFFFA
:103E3800FFFFFFF7FFFFFFFFFFFFFFFFFFFFFFFF92
:103E4800FFFFFFFFFFFFFFFFFFFFFFFFFFFFFFFF7A
:103E5800FFFFFFFFFFFFFFFFFFFFFFFFFFFFFFFF6A
:103E6800FFFFFFFFFFFFFFFFFFFFFFFFFFFFFFFF5A
:103E7800FFFFFFFFFFFFFFFFFFFFFFFFFFFFFFFF4A
:103E8800FFFFFFFFFFFFFFFFFFFFFFFFFFEFFFF752
:103E9800FFFFDFFFFFFFFFF7FFEFFFF7FFFFDFFF8A
:103EA800DFFFDFFFFFFFFFFFFEFFFEFFFFFFFFFF5C
:103EB800FFFFFFFFFFFFFFFFFFFFFFFFFFFFFFFF0A
:103EC800FFFFFFFFFFFFFFF7DFFFBFFFDFFFBFFFC2
:103ED800BFFFFFFFFFFFFFFFFFFFDFFFFFFFFFFF4A
:103EE800FFFFFFFFFFFFFFFFFFFFFFFFFFFFFFFFDA
:103EF800FFFFFFFFFFFFFFFFFFFFFFFFFFFFFFFFCA
:103F0800FFFFFFFFFFF7DEEFFFFFFFFFFFFFFFF7FA
:103F1800FFF7FFFFDFFFDFFFDFFFFFFFFFFFFFFF11
:103F2800FFFFFFFFFFFFFFFFFFFFFFFFFFFFFFFF99
:103F3800FFFFFFFFFFF7FFF7FFF7FFFFDEFFDEFFE3
:103F4800FEEFFEF7FEFFFFFFFFF7FFF7FFF7FFF7B4
:103F5800DFFFBFFFDFFFFFFFFFFFFFF7FFFFFFFFF1
:103F6800FFFFFFFFFFFFFFFFFFFFFFFFDFFFFFFF79
:103F7800FFF7FFF7FFF79DF737EE91CCCC8B8C8BD3
:103F8800AD930F9C74B5FAD6FFF7FFFFDFFFDFFF95
:103F9800DFFFFFFFFFFFFFFFFFFFFFFFDFFFFFFF69
:103FA800FFFFFFFFFFFFFFFFDFFFDFFFFFF7FFEF71
:103FB800FEF7BCFF13DD45810399E3980499459109
:103FC8002DAB38E69DFFDFFFDFFFDFFFDFFFFFFFE1
:103FD800FFF7FFFFFFFFDFFFDFFFDFFFFFFFFFFF51
:103FE800FFFFFFFFDFFFDFFFFFFFFFEFFDEFDDFF5D
:103FF80075FD25A124E904E105D925C10CCBDAFE1C
:10400800DEFFFFFFDFFFDFFFFFFFFFFFFFF7FFFF21
:10401800FFFFDFFFDFFFDFFFFFFFFFF7FFFFFFFF10
:104028009FFFBFFFFFFFFFEFFDF7BCFF14FD25B1AA
:10403800E1D8E2D803D144B10ABB7BFFFDFFFEFF04
:10404800FFFFFFFFFFFFFFFFFFF7FFFFFFFFBFFFC0
:10405800DFFFDFFFFFFFFFF7FFFFFFFFBFFFBFFF30
:10406800FFFFFFEFFEF77CFF92FCC4B8A1C181C13E
:10407800A3B9C3A16AABFCFFFDF7FEF7FFF7FFFF8B
:10408800FFFFFFF7FFF7FFFFDFFFBFFFFFFFFEFFA9
:10409800FEFFFFFFDFFFFFFFFFFFFDFFFEFFFFFF4C
:1040A800DFFFBFFF2FECE1C0A3C122D123D164A958
:1040B800ADABFFFFFFFFDFFFFFFFFEFFFEFFDFFFF0
:1040C800FFFFFFF7FFFFDFFFFFFFFFFFFEFFFFFF21
:1040D800DFFFFFFFFFFFFEFFFEFFFFFFDFF7BFFF72
:1040E800CEE3C1C0A3C102D123D164A90EB4FFFF9E
:1040F800DFFFDFFFFFFFFEFFFEFFDFFFFFFFFFF732
:10410800FFFFDFFFFFFFFFFFFEFFFFFFFFFFFFFFD8
:10411800FFFFFEFFFEFFFFFFFFF7BFFF2BD3C1C06E
:1041280083C102C923D943A1B1C4FFFFBFFFDFFF89
:10413800FFFFFEFFFEFFFFFFFFFFFFF7FFFFDFFFB1
:10414800FFFFFFFFFFFFFFFFFFFFFFFFFFFFFEFF78
:10415800FEFFFFF7FFF79EFFA9C2C1C882C102D1C7
:1041680024D9239953D5FFFFBFFFFFFFFFFFFEFFB1
:10417800FEFFFFFFFFFFFFFFFFFFDFFFFFFFFFFF68
:10418800FFFFFFFFFFFFFFFFFFFFFEFFFFFFFFF740
:10419800FFF75CFF27B2E2D882C122D123D103996D
:1041A800F6E5FFFFDFFFDFFFFFFFFFFFFFFFFFFF7A
:1041B800FFFFFFFFFFFFFFFFFFFFFFFFFFFFFFFF07
:1041C800FFFFFFFFFFFFFFFFFEFFFFF7FFF7DAFE2E
:1041D800A5B102E162C143D9E3C8449998F6FFFF4B
:1041E800FFFFDFFFFFFFFFFFFFFFFFFFFFFFFFFFF7
:1041F800FFFFFFFFFFFFFFFFFFFFFFFFFFFFFFFFC7
:10420800FFFFFFFFFFFFFFF7FFFF16EE43A903E9DC
:1042180041C143D1C3B8C6A13BFFFFFFFFFFDFFF8A
:10422800FFFFFFF7FFF7FFFFFFFFFFFFFFFFFFFFA6
:10423800FFFFFFFFFFFFFFFFFFFFFFFFDFFFDFFFC6
:10424800FFFFFFF7FEFF74E502A103E941C943D16F
:10425800C3B028A2BDFFFFF7FFFFDFFFFFFFFFF797
:10426800FFF7FFFFDFFFDFFFFFFFFFFFFFFFFFFF9E
:10427800FFFFFFFFFFFFFFFFFFFFFFFFDFFFFFFF66
:10428800FEFF2ECC43B103E141C963C9A2982CBB00
:10429800BEFFFFF7FFFFDFFFFFFFFFF7FFF7FFFF9F
:1042A800DFFFDFFFFFFFFFFFFFFFFFFFFFFFFFFF56
:1042B800FFFFFFFFDFFFFFFFFFFFFFFFBDFF4BC358
:1042C80022B902D941C963C9A29051CCDFFFFFFFCF
:1042D800FFFFFFFFFFFFFFF7FFF7FFFFDFFFDFFF36
:1042E800FFFFFFFFFFFFFFFFFFFFFFFFFFFFFFFFD6
:1042F800FFFFFFFFFFF7FFFF3BFF47BA22C122D9AD
:1043080041C963C1C38097EDDFFFDFF7DEFFFFFF21
:10431800FFFFFFFFFFFFFFFFDFFFDFFFFFFFFFF7ED
:10432800FFFFFFFFFFFFFFFFFFFFFFFFFFFFFFFF95
:10433800FFF7FFFF58FE64B143C943D142D143B1EF
:104348002479DBFEDFFFFFFFDEFFFFFFFFFFFFFF3C
:10435800FFFFFFFFDFFFDFFFFFFFFFF7FFFFFFFFAD
:10436800FFFFFFFFFFFFDFFFFFFFFFF7FFEFDFFFAD
:1043780054FDE2B043D162C962D102A1288A9EFFEE
:10438800DFFFFFFFFFFFFFFFFFFFFFFFFFFFFFFF55
:10439800DFFFFFFFFFFFFFFFFFFFFFFFFFFFFFFF45
:1043A800FFFFDEFFDFFFFFEFFFEFDFFF10ECC2C014
:1043B80023D162C142D1C190ADABDFFFDFFFFFFF68
:1043C800FFFFFEFFFFFFFFFFFFFFDFFFDFFFFFFF36
:1043D800FFFFFFFFFFFFFFFFFFFFFFFFFFFFDEFF06
:1043E800DFFFFFF7FFEF9EFFCBD2E3D022D982C1D8
:1043F80022C9C08054DDDFFFBFFFDFFFDFFFFEFF04
:10440800FFFFFFFFDFFFDFFFFFFFFFFFFFFFFFFFF4
:10441800FFFFFFFFFFFFFFFFFFFFDEFFDFFFFFEFF5
:10442800FFE75DFFC7B9C3D802D1A2B922C9C180CD
:10443800B9FEFFFFDFFFDFFFFFFFFEFFFFFFFFFF0C
:10444800DFFFDFFFFFFFFFFFFFFFFFFFBFFFFFFFF4
:10445800FFF7FEF7FFFFFFFFFEFFFEF7FEFFF7FD8A
:1044680085B142D141C9A3C10599C8917EFFFFFF1B
:10447800FFF7FFF7FFFFFFFFFEFFFEFFFEFFFFFF57
:10448800FFFFFFFFFFFFDFFFDFFFFFFFFFF7FFF784
:10449800FFFFFFFFFEFFFEFFBDFF51DC03B122D986
:1044A80022D163C96380AFCBBFFFDFFFDFF7FFFF18
:1044B800FFFFFFFFFEFFFEFFFFFFFFFFFFFFFFFF06
:1044C800FFFFFFFFFFFFFFFFFFF7FFF7FFFFDFFF24
:1044D800DFFFFEFF7DFFEBC203C102D922D964D101
:1044E8008268B6F5BDFFFFFFFFFFDFFFDFFFFFFFBD
:1044F800FFFFFFFFFFFFFFFFFFFFFFFFFFFFFFFFC4
:10450800DFFFFFFFFFFFFFFFDFFFDFFFDFFFDFFF53
:10451800FAFEE6A964C922D163D1C1B0066A9CFF3C
:10452800FDFFFDF7FFFFFFFFFFFFFEF7FFF7FFF7B8
:10453800FFFFFFFFFFFFFFFFFFFFFFFFDFFFFFFFA3
:10454800FFFFFFFFDFFFDFFFDFFFDFFF34ED43A1EA
:1045580042C183C984C90090EDAB9AFF9AFF9BFFC3
:104568007BFF3BFF9DFFFFFFFFF7FFF7FFFFFFFF0D
:10457800FFFFFFFFFFFFFFFFFFFFFFFFFFFFFFFF43
:10458800DFFFDFFFFFFFBFFF4CC363B921C183C952
:1045980063C180A868AAE9B2679A87AA48A2079265
:1045A800EFB33CF7FFFFFFF7FFFFFFFFFFFFFFFF42
:1045B800FFFFFFFFFEFFFFFFFFF7FFFFDFFFFFFF2C
:1045C800FFFF9EFF88BA62C941D142C143C164D18D
:1045D80003B944C123C103C103C145B90CC3FCFEDF
:1045E800DFFFFFFFFFFFFFFFFFFFFFFFFFF7FFF703
:1045F800FEFFFFFFFFF7FFFFFFFFFFFFFFF7BEFF15
:10460800A9C2E0C081D962C163C923D124D144D9E8
:1046180002D9E1E0E2E024C9AAC21CFFDFFFFFFFE4
:10462800FFFFDFFFFFFFFFFFFFFFFFF7FEFFFFFFBB
:10463800FFFFFFFFFFFFFFF7FFFF9EFFA8CA20C98C
:1046480060D182C163C123D143C922C942D921E1C2
:1046580001D943C1EAC23BFFFFFFFFF7FFFFDFFFBE
:10466800DFFFFFFFFFFFFFFFFFFFFFFFFFFFFFFF72
:10467800FFFFFFFFFFFF9EFFC9CA21C981D182C189
:1046880043C124D963C162C962C921D101C943B9EF
:104698002ABB5BFFFEF7FFF7FFFFFFFFDFFFFFFF10
:1046A800FFFFFFFFFFFFFFFFFFF7FFFFFFFFFFFF1A
:1046B800DFFF7EFF8ACAC1C062D163C924C925E170
:1046C80064C963C942C942D183D1A5C12BC31AFFAA
:1046D800FEFFFFF7FFFFFFFFDFFFFFFFFFFFFFFF0B
:1046E800FFFFFFF7FFF7FFFFFFFFFFFFFFFF7EFF63
:1046F800CBC203B143C143B904C1E4C824C144B91E
:1047080023B943B903B103A1EAB23BFFFEFFFFFFA0
:10471800FFFFDFFFDFFFFFFFFFFFFFFFFFFFFFFFE1
:10472800FFFFFFFFFFFFFFFFFFFF7EFF11CCABBACC
:1047380089BA88BAAAC28ACA89C2CABAEABA0BC3EB
:10474800EBC20CBB70C47BFFFEFFFFFFFFFFFFFF48
:10475800FFFFFFFFFFFFFFFFDFFFDFFFFFFFFEFFA2
:10476800FFFFFFFFDEFFDFFF5EFF7EFF7CFF9BFF9B
:104778009CFF3CFF9CFFBDFF9DFF9DFF9EFF9EFF92
:104788007CFFFEFFFEF7FFF7FFFFFFFFFFFFFFFFC6
:10479800FFFFFFFFDFFFDFFFFEFFFEFFFFFFFFF76B
:1047A800FFFFFFFFDFFFDFFFDEFFFDFFFDFFFFFF76
:1047B800BEFFFFFFFFFFFFFFBFFFDFFFDEFFFEFFC4
:1047C800FEF7FFFFFFFFFFFFFFFFFFFFFFFFFFFFFA
:1047D800FFFFFFFFFEFFFEFFFFF7FFF7FFFFFFFFF3
:1047E800FFFFFFFFFFFFFDFFFDF7FFF7DFFFFFFF05
:1047F800FFF7FFF7DFFFDFFFDFFFFFFFFFFFFFFF31
:10480800FFFFFFFFFFFFFFFFFFFFFFFFFFFFFFFFB0
:10481800FFFFFFFFFFFFFFFFFFFFDFFFFFFFFFFFC0
:10482800FFF7FFF7FFF7FFF7DFFFFFFFDFFFFFFFF0
:10483800DFFFDFFFDFFFDFFFFFFFFFFFFFF7FFEF18
:10484800FFF7FFFFFFFFBFFFFFFFFFFFFFFFFFFFB8
:10485800FFFFFFFFFFFFFFFFFFFFFFFFFFFFFFFF60
:10486800FFFFFFFFFFF7FFF7FFF7FFF7FFFFBFFFB0
:10487800BFFFBFFFDFFFFFFFFFF7FFEFFFEFFFF710
:10488800FFFFFFFFFFFFFFFFFFFFFFFFFFFFFFFF30
:10489800FFFFDFF7FFFFFFFFDFFFDEFFFEFFBDFFCC
:1048A800DDEFFEF7FEF7FEEFDEF7FFFF9EFFDFFF0F
:1048B800BFFFDFFFFFFFFFFFFFF7FFFFFFFFFFFF68
:1048C800FFFFFFFFFFFFFFFFFFFFFFFFFFFFFFFFF0
:1048D800BFF79EFF59DE13C50B93A98AC98AA9821F
:1048E8002A83D1A437CE1ADFFFFFDFFFDFFFDFFF08
:1048F800DFFFFFFFFFFFFFFFFFFFFFFFFFFFFFFFE0
:10490800FFFFFFFFFFFFFFFFFFF7FFFFFFFF9DFF19
:10491800FBFE8DB323790281C3A8E3A0C280C689B8
:10492800B1C43BFFBDF7FFFFFFFFFFFFDFFFDFFF66
:10493800DFFFFFFFFFFFFFFFFFFFFFFFFFFFFFFF9F
:10494800FFFFFFFFFFF7FFFFDFFF7CFF74F5C6A146
:1049580084B184C124E104D945D145B9869995ED3E
:10496800DEFFFEF7FFEFFFF7FFFFFFFFDFFFFFFFB1
:10497800FFFFFFF7FFFFFFFFFFFFFFFFFFFFFFF74F
:10498800FFF7FFFFDEFF3BFF48A243A943C922D937
:1049980001C942D903D124D124B1C799B9FEFEFF78
:1049A800FFEFFFEFFFF7FFFFDFFFFFFFFFFFFFF75F
:1049B800FFFFFFFFFFFFFFFFFFFFFFF7FFF7FEF718
:1049C800DEFFF2D4438984C122D9C1E8C1B981B9D3
:1049D80042C923C965C1459171C4FEFFFFF7FFF7BE
:1049E800FFFFDFFFDFFFDFFFFFFFFFFFFFFFFFFF2F
:1049F800FFFFFFFFFFFFFFFFDFFFBFFF3CFFA8BA7E
:104A080043C123D101C982C926D903C942D143D19F
:104A180024C9A5B16AABBBFFFFF7FFFFFFFFFFFF8C
:104A2800FFFFFFFFFFFFFFFFFFFFFFFFFFFFFFFF8E
:104A3800FFFFFFFFDFFF9FFF79FEE5A922B943D102
:104A480043D162C104B984C942C943D103C944B13D
:104A5800C8AAF9FEFFFFFFFFFFFFFFFFFFFFFFFFF1
:104A6800FFFFFFFFFFFFFFFFFFFFFFFFFFFFFFFF4E
:104A7800DFFF9FFFB6FD43A143C143D143C9E0B067
:104A8800E6A188CA22B943D124D144B988B257FED5
:104A9800DFFFDFFFDFFFFFFFFFFFFFF7FFF7FFFF8E
:104AA800FFFFFFFFFFFFFFFFFFFFFFFFDFF7BFFF76
:104AB800D2EC22A963C963C943C1A0A82EBC6FEC7C
:104AC80022B143D124D923C126BA95F5BFFFDFFF10
:104AD800FFFFFFFFFFFFFFF7FFFFFFFFFFFFFFFFE6
:104AE800FFFFFFFFFFFFFFFFFFF7BEFFEEDB02B197
:104AF80042C963C163B922B9D4D552F502A923D1F9
:104B080023D923C1E5B933F5BEFFFFFFFFFFFFFF40
:104B1800FFFFFFFFFFFFFEFFFFFFFFFFFFFFDFFFBE
:104B2800FFFFFFF7FFEFBEFF6CD302C142C983C18D
:104B380064B984C136CE32EDE1A823D943D942C144
:104B4800C4B933F5BEFFFFF7FFF7FFFFFFFFFFFF15
:104B5800FFFFDEFFFFFFFFFFFFFFDFFFFFFFFFF7A6
:104B6800FEEFBDFF4BDB02C942D163B964B164C13A
:104B780098CE32ED03B923E123D142C183B1B1E428
:104B8800DEFFFFF7FFF7FFFFFFFFFFFFFFFFBEFF9F
:104B9800FFFFFFFFFFFFDFFFDFFFFFF7FEEFBDFFB8
:104BA8002BDBC1C842D183B984B985C1D9D6F2EC0F
:104BB80003B903D922D183C983B170E4BEFFFFF7DB
:104BC800FFF7FFFFFFFFFFFFFFFFDEFFFFFFFFFF16
:104BD800FFFFDFFFDFFFFFF7FEEFDDFFEAD2C1C80F
:104BE80042D1A4C143A9A6C998DED1ECC2B823E139
:104BF80022D142C163B12FDC9EFFFFF7FFFFFFFF09
:104C0800FFFFFFFFFFFFFEFFFFFFFFFFFFFFDFFFCD
:104C1800FFFFFFF7FFEFBDFF2BDBC1C043D163B937
:104C280064B965C117EE50ECC2B822D942D183C924
:104C380083B90EDC9EFFFFFFFFFFFFFFFFFFFFF7BB
:104C4800FFF7FEFFFFFFFFFFFFFFDFFFFFFFFFFF95
:104C5800FFF7BEFF8DDBE1C042D143C164B923B980
:104C6800AEC3EAD202C922D942C962C163B10ED425
:104C78009EFFFFFFFFFFFFFFFFFFFFFFFFFFFEFF9E
:104C8800FFFFFFFFFFFFFFFFFFFFFFFFFFF7BEFF75
:104C9800EEDB02B942C963C943C102B9049924B918
:104CA80002C922D143D163C1A4B16FDCBEFFFFF7B3
:104CB800FFFFFFFFFFFFFFFFFFFFFEFFFFFFFFFFFD
:104CC800FFFFFFFFFFFFFFFFDFFFBFFFB2EC02A9FF
:104CD80063D143C963C942C125C144C963D142D123
:104CE80042C963C163A90EC4BEFFFFF7FFF7FFFF08
:104CF800FFFFFFFFFFFFFFFFFFFFFFFFFFFFFFFFBC
:104D0800FFFFFFFFFFFF9FFFB6FD43A163C902C975
:104D180063D162C925D123C962C941C943D164D1CC
:104D2800A4B12FD4BEFFFFF7FFF7FFFFFFFFFFFF80
:104D3800FFFFFFFFFFFFFFFFFFFFFFFFFFFFFFFF7B
:104D4800DFFF9FFFBAFE06B243C102D143D142C979
:104D580004D142C981C162C923D103D144B9EFD377
:104D68009EFFDFFFFFFFFFFFFFFFFFFFFFFFFFFFCC
:104D7800FFFFFFFFFFFFFFFFFFFFFFFFDFFFBFFF9B
:104D88007DFF2AD302B944D922D141C924D942C1CD
:104D980081B982C923D9E3D824C1CFDB7EFFDFFFE5
:104DA800FFFFFFFFFFFFFFFFFFFFFFFFDFFFFFFF2B
:104DB800FFFFFFF7FFFFDFFFDFFFFFFFFDFF76F6D7
:104DC80083A9E1E0E0F8E0F045B903B963C941D14E
:104DD80041D164D925B9D0D3BFFFFFFFFFFFFFFF43
:104DE800FFFFFFF7FFFFDFFFDFFFDFFFFFFFFFF73B
:104DF800FFF7FFFFFFFFFFFFFFF7FDFFB5E547AA3E
:104E080064A1C5A9C691A5A942C162D121D163D126
:104E180045B1F0CBDFFFFFF7FFFFFFFFFFFFFFFF0D
:104E2800FFFFDFFFFFFFDFFFFFFFFFF7FFF7FFFFDA
:104E3800FFFFFFFFFFEFFFF7FFFFBFFFFCFE38DEBE
:104E4800F9F6D1E443B142D121D162C164A110C4C1
:104E5800DEFFFFF7FFF7FFFFFFFFFFFFFFFFDFFFAB
:104E6800FFFFFFFFFFFFFFFFFFFFFFFFDFFFBFFFAA
:104E7800BFFF7FFFDCFE7EFF3DFFBFFFDDFF74ED60
:104E8800E2A843E142D962C163A130CCDEFFFFF75B
:104E9800FFF7FFFFFFFFFFFFFFFFDFFFFEFFFFFF43
:104EA800FFFFDFFFBFFFDFFFFFFF9DFF76FD87A945
:104EB800A7B9E8B1E7A147A279E6F4F4E3B023E1A2
:104EC80022D983C943A130D4BEFFFFFFFFF7FFFFFC
:104ED800FFFFFFFFFFFFFFFFFFFFFFF7FFFFDFFF02
:104EE800DFFFFFFFFDF7FCFF53FDC2B044E1E2C85E
:104EF80062C161B976F551F424B922D142D183C98E
:104F0800029971DC9EFFDFFFDFFFFFFFFFFFFFFF5E
:104F1800FFFFFFFFDFFFFFFFFFFFFFFFFFFFFFF7C1
:104F2800FCEFFCFFF4FD84B943D122C982C900B16A
:104F380029AA07BA23B183C983D163B9C18074EDA3
:104F4800DEFFDFFFDFFFDFFFFFFFFFFFFFFFFFFFEA
:104F5800DFFFDFFFFFFFFFFFFFFFFFF7FEF7FDFFAC
:104F6800B8FEC69965B964C184C163B923A1A4B167
:104F7800C4B962C162C984B94381B8F6FEFFFFF7BC
:104F8800FFFFDFFFDFFFFFFFFFFFFFF7DFFFDFFFB1
:104F9800DFFFFFFFFFFFFFFFFFFFDEFF9DFF8AAA86
:104FA80025B125D924D143C982C162C1A3C922C967
:104FB80044D123A94892BDFFFEEFFFEFFFFFDFFFBB
:104FC800DFFFFFFFFFFFFFF7FFFFFFFFDFFFDFFF51
:104FD800DFFFDFFFDFFFDFFFBEFF31D4E5B826F9D3
:104FE800A1E041D960D141D101D9C2D866E1C398C5
:104FF80051CCFEFFFFEFFFEFFFFFDFFFDFFFDFFF1B
:10500800FFFFFFF7FEFFFFFFFFFFDFFFDFFFDFFF11
:10501800DFFFFFF7FFFFBAFE65B9A2E041E960D103
:1050280081E1E0D823E945E9E4B886993CFF9EFF91
:10503800FFFFFFFFFFFFFFFFDFFFDFFFFFFFFFEFC8
:10504800FEFFFEFFFFFFFFFFFFFFFFFFFFFFFFEF7A
:10505800FFEFFDFF74FD64B920B180A121C101C13A
:1050680023C9E4B0A69938F6FFFFDFFFDFFFDFFFB3
:10507800FFFFFFFFFFFFDFFFFFFFFFF7DFFFDEFFA1
:10508800FFFFFFFFFFFFFFFFFFFFFFF7FEEFFDFF43
:105098009DFF99FE0ECC6BB3A8C267B22BC3CECBD3
:1050A800BAFEFEFFDEEFFFFFDFFFDFFFFFFFFFFFC0
:1050B800FFFFDFFFFFFFFFF7DFFFDFFFFFFFFFFF60
:1050C800FFFFFFFFFFFFBEF7FFFFFFFFFFFFBFFF71
:1050D800BFFF7EFF5CFF5CFF9DFFBEFFBEFFFFF7CB
:1050E800FEE7FFF7FFFFDFFFFFFFFFFFFFFFDFFF29
:1050F800FFFFFFFFDFFFDFFFFFF7FFF7FFFFFFFF08
:10510800DFF7FFFFDFFFBEFFFFFFFFFFFFFFDFFF50
:10511800DFFFFFFFDFEFFFFFDFFFBFFFFFF7FFEF5F
:10512800FFFFFFFFFFFFFFFFDFFFDFFFFFFFFFFFC7
:105138009FF79FEF9FEF9FEF7FF79FF7DFEF7DE7E9
:10514800BFFFBFFFBEFFFFFFFFF7FFF7FFFFFFEF48
:10515800FFEFFFFF9FFF9FFFFFFFFFF7FFF7FFFF37
:10516800FFFFFFFFDFFFDFFFFFFFFEFFFFFFFFFF88
:10517800FFFFFFFFFFFFFFFFFFFFDFFFFFFFFFF75F
:10518800FFF7FFF7FFF7FFEFFFFFFFFFFFFFFFFF4F
:10519800FFFFDFFFDFFFBFFFFFFFFFF7FFF7FFF7AF
:1051A800FFF7FFFFDFFFBFFFFFFFFFFFFFFFFFFF6F
:1051B800FFFFFFFFDFFFFFFFDFF7FFFFFFFFFFF747
:1051C800FFF7FFFFFFF7FEEFFFF7FFFFBFFFBFFF90
:1051D800DFFFDFFFFFFFFFFFFFF7FFF7FFF7FFFF2F
:1051E800FFFFDFFFFFFFFFFFFFFFFFFFFFFFFFFFE7
:1051F800FFFFFFFFFFFFFFFFDFFFFEFFFEFFBDFF1B
:10520800DDEFFEFFFEF7DEF7FFFFFFFFFFFFFFFF0B
:10521800FFFFFFFFFFFFFFFFFFFFFFFFFFFFFFFF96
:10522800FFFFFFFFFFFFFFFFFFFFFFFFFFFFFFF78E
:10523800DFF77DF779E633CD2B93C98AA98AA9824E
:105248002B8B4FA4F6CD5CEFDEF7FFF7FFFFFFFFD8
:10525800DFFFDFFFDFFFFFFFFFFFFFFFFFFFFFFFB6
:10526800FFFFFFFFFFFFFFFFFFF7FFFFFFFFBEFF8F
:1052780099FE0BAB03816491A3B0C3A8049965910F
:105288002CA3FAFEBDF7FFF7FFF7FFFFFFFFDFFFD5
:10529800DFFFFFFFFFFFFFF7FFFFFFFFFFFFFFFF3E
:1052A800FFFFFFFFFFFFFFFFDFFF3BFF70DC64999D
:1052B80064B984C924F1E4E066E104B94499EFC310
:1052C800DDFFDEFFFFF7FFF7FFFFFFFFFFFFFFFF39
:1052D800FFF7FFF7FFFFFFFFFFFFFFFFFFFFFFFFE6
:1052E800FFF7FFFFBDFF37FEA59964B964D9E2E077
:1052F80021D122D122D124C985B90381B5EDDEFFA0
:10530800FFFFFFF7FFFFFFFFFFFFFFFFFFFFFFFFAD
:10531800FFFFFFFFDFFFFFFFFFFFFFFFFFFFBDF7FF
:10532800DEFFCEBB649944C902E1C1F0A0B1C1B9A6
:1053380082C163C1A5C16599CEC39DFFFFFFFFFF71
:10534800FFFFDFFFDFFFDFFFDFFFFFFFFFFFFFFFE5
:10535800FFFFFFFFFFFFFFFFFFFFDEFFFAFE05B2C3
:1053680042C122D144D144C965C144D103D9E2D84C
:1053780064D965B12CBB3DFFBFFFDFFFFFFFFFFF17
:10538800FFF7FFF7FEF7FFFFFFFFFFFFFFFFFFFF3E
:10539800FFFFFFFFFFFFBDFF16FE84A942C142D1F8
:1053A80064D124C184A984C123D122E122C963A97B
:1053B8004BBB99FEDFFFDFFFDFFFFFFFFFFFFFFFB4
:1053C800FFF7FFF7FFFFFFFFFFFFFFFFFFFFFFFFF5
:1053D800FFFFBDFF54F543A963C942C964D181B039
:1053E800259A29D322C121D942D982B909B397F67E
:1053F800FEFFDFFFDFFFDFFFDFFFFFFFFFFFFFFF36
:10540800FFFFFFFFFFFFFFFFFFFFFFFFFEF7DEFFCE
:10541800D2EC23B183D122C164C980A82DB431FD57
:1054280022B9E1E001E921C945B256F6FEFFFFFFC6
:10543800FFFFDFFFDFFFDFFFDFFFFFFFFFFFFFFFF4
:10544800FFFFFFFFFFFFFFFFFFF7DEFF50E4E2B0C3
:1054580063D122C184C9C2B811B594FDC2A823E999
:10546800E2F043D925BAF5F5FDFFFFF7FFF7FFFF97
:10547800DFFFDFFFDFFFDFFFFFFFFFFFFFFFDFFFD4
:10548800FFFFFFFFFFF7BEFFEFE3C2B883D162C99A
:1054980083C102B954BDD7F50491E3B8C2B822B1AB
:1054A800A49132CDFEFFFFFFFFFFFFFFDFFFDFFF0D
:1054B800FFFFFFFFFFFFFFFFFFFFFFFFFFFFFFFFF4
:1054C800FFF7BEFF10ECE3B883D983C942B922C104
:1054D80035BD1DFFD3D4D2EC12F512E5D0C498E641
:1054E800FFFFFFFFDFFFDFFFFFFFFFFFFFFFFFF70C
:1054F800FFFFFFFFFFFFDFFFFFFFFFFFFFF7BEFF1D
:1055080031ECE3B843D182C942B9A4D176C5BFFF13
:10551800BEFFDEFFBDFFFEFFFEFFFFFFFFFFFFFF39
:10552800FFFFFFFFFFFFFFFFFFF7FFF7FFFFFFFF93
:10553800FFFFFFFFFFFFFFFFFFF7BEFF14FDE3B014
:1055480063C982C962C122C110AC9DFFDFFFFFFFA2
:10555800FFF7FFEFFFF7FFFFFFFFFFFFFFFFFFFF73
:10556800FFFFFFFFFFFFFFFFFFFFFFFFFFFFFFFF43
:10557800FFFFFFFFFFF7DFFFB6FD44A963C942C184
:1055880083C942C103812FD4D6ED7DFFFFFFFFFF02
:10559800FFFFFFFFFFFFFFFFFFFFFFFFFFFFFFFF13
:1055A800FFFFFFFFFFFFFFFFFFFFFFFFFFFFFFFF03
:1055B800FFFF9EFFFBFE27B284C143C922C963C90E
:1055C80043C923A9E691B6E5DFFFFFFFBFFFDFFF71
:1055D800DFFFDFFFDFFFFFFFFFFFFFFFFFFFFFF73B
:1055E800FFFFFFFFFFFFFFFFFFFFFFFFDFFFDFFF03
:1055F8009DFFEDD3E1A884D922C963C901D942C16D
:1056080026AAF6F5DFFFDFFFFFFFFFFFDFFFDFFF63
:10561800DFFFDFFFDFFFFFFFFFFFFFF7FFFFFFFFFA
:10562800FFFFFFFFFFFFFFFFDFFFDFFFDDFF98FE4C
:1056380067D2E2C844D943C161D1A3C105A2F6F536
:10564800DEFF9EFFFFFFFFFFFFFFFFFFFFFFFFFFE4
:10565800DFFFDFFFFFFFFFFFFFFFFFFFFFFFFFFF92
:10566800FFFFFFFFDFFF9FFFFEFFBBFF4BE3C2D043
:1056780003D943C941C1E4B9469AF6E5DEFFDFFF25
:10568800FFFFDFFFFFFFFFF7FFF7FFFFFFFFDFFF72
:10569800DFFFDFFFFFFFFFFFFFFFFFFFFFFFFFFF52
:1056A800BFFFFFFFFEFFF4DD43A165E9E3D843C96F
:1056B80064D143A9069217E6FFFFDFFFDFFFFFFF74
:1056C800FFFFFFF7FFF7FFF7FFFFFFFFFFFFFFFFFA
:1056D800FFFFFFFFFFFFFFFFFFFFDFFFBFFFDFFF52
:1056E800FEF72C9C63A1C2D844E943C904D9E8D188
:1056F800EFD3DAFEDEFFFFFFFFFFDFFFFFFFFFFF55
:10570800FFFFFFFFFFFFFFFFFFFFFFFFFFFFFFF7A9
:10571800FEFFFFFFFFFFFFFFDFFFDFFF1AFF45B2BE
:1057280061C141D143D123C9445998E6FDEFFFDF58
:10573800FFDFFFEFFFF7FFFFFFFFDFFFDFFFFFFFE9
:10574800FFF7FFF7FFFFDFFFFFFFFFF7FEFFFFFF9A
:10575800FFFFFFFFDFFFBFFF78FEE4A962C162C958
:1057680062C902B1E7717DFFBDFFBEFF7EFF9EFFEC
:10577800BFFFDFFFDFFFFFFFFFFFFFFFFFFFFFFFB1
:10578800FFFFFFFFFFF7FFFFFEFFFFFFDFFFDFFF6A
:10579800BFFF9FFFF7FD63A962C182C962C101A172
:1057A8008DA3D7FD2ED32EE36FEB6FD393DCFBFED7
:1057B800DFFFFFFFFFFFFFFFFFFFFFFFFFFFFFF719
:1057C800FFF7FFFFFEFFFFFFFFFFFFFFDFFF9FFF6A
:1057D800B7FD44A943C942D163C902A970A4F3E43F
:1057E800A4A0A4C8A4C8C3A0C791D6E5FEFFFFF72C
:1057F800FFF7FFFFDFFFDFFFFFFFFFF7FFFFFFFF01
:10580800FFFFFFFFFFFFFFF7DFF7BFFFD7FD44B143
:1058180023D102D943D102C111ADF2E424B124E16C
:1058280023D9A4C1C49157F6FEFFFFF7FFF7FFFF86
:10583800DFFFDFFFFFFFFFFFFFFFFFFFFFFFFFFFB0
:10584800FFF7FFF7FFF7DFFF18FE85B143D122D935
:1058580023D102C170BCCDD303B922E141D962B9C9
:105868004279B8FEDFFFFFFFFFFFFFFFFFFFFFFFEB
:10587800FFFFFFFFFFFFFFFFFFFFFFFFFFFFFFFF30
:10588800FFFFDFFF9AFE06B263C142D142D122C9AF
:105898002491A5B922C900D940D140A9E3813BFF91
:1058A800DFFFBFFFBFFFDFFFFFFFFFFFFFFFFFFFC0
:1058B800FFFFDFFFDFFFDFFFDFFFFFFFDFFFDFFFB0
:1058C8003BFF87AAA3B962C142C943C944B943C1CE
:1058D80042D900D9A1D960A1868ADDFFDFFFBFFFC9
:1058E800BFFFDFFFFFFFFFF7FFFFDFFFFFFFFFFF48
:1058F800DFFFFFFFFFFFFFFFDFFFDFFF9DFFABC302
:1059080062A162C943D902D964C163D121D141D905
:10591800A2C920896EB4FFFFFFF7DFFFDFFFFFFF9B
:10592800FEFFFFF7FFFFDFFFFFF7FFFFFFFFFFFFB0
:10593800FFFFFFFFFFFFFFFFBDFFD4FD83A142C1B3
:1059480023E1C3E843C963D101D9E1D083C1A48964
:10595800D9F6FFF7FFEFFFF7FFFFFFFFFEFFFEFFA0
:10596800FFFFDFFFFFF7FFF7FFF7FFFFFFFFFFF77F
:10597800FFF7DEF7FDFF5AFF29C343B924D9C4E076
:1059880043D144E103E185E103A9CEC37DFFFFFFD5
:10599800FFF7FFF7FFFFFEFFFEFFFEFFFFFFFFFF22
:1059A800FFFFFFFFFFFFFFFFFFFFFFFFFFFFFFFFFF
:1059B800DEFFDCFFD8FE2AC344A904B923B9C2B864
:1059C80004C185B98DCB5DFFDFFF9FFFDFFFFFFFC0
:1059D800FFFFFFFFFEFFFFFFFFFFFFFFDFFFDFFF10
:1059E800DFFFDFFFFFFFFFFFDFFFDFFFFFFFFEFF40
:1059F800FDFF7BFF17FE91DC50E450E4F3FCF7FD5C
:105A0800BDFFDEFFDFFFFFFFDFFFFFFFFFF7FFF751
:105A1800FFFFFFFFFFFFFFFFDFFFDFFFDFFFDFFF0E
:105A2800FFFFFFFFFFFFFFFFFFFFBEF7FEFFFEFFC9
:105A3800BDFFFEFF9CFFDDFFBDFFDDFFFFF7FFF7AA
:105A4800FFF7FFFFFFFFFFFFFFFFFFFFFFFFFFFF66
:105A5800FFFFDFFFDFFFDFFFDFFFFFFFFEFFFFFFCF
:105A6800FFFFBFFFDFFFBFFFFFFFFFFFFFFFDFF706
:105A7800FEFFFEF7FFF7FFEFFFF7FFFFDFFFDFFF98
:105A8800FFFFFFFFFFFFFFFFFFFFFFFFFFFFDFFF3E
:105A9800BEEF9FEFBEEFDEE7DDE7DEE79FEF7FF7C4
:105AA8009FFFDFFFDFFFBFFFFFFFFFFFFFFFFFFFDE
:105AB800FFEFFFF7DFFFBFFFBFFFDFFFFFFFFFFFC6
:105AC800FFFFFFFFFFFFFFFFFFFFDFFFFFFFFFFFFE
